{
	"contracts/AddFiveStorage.sol": {
		"AddFiveStorage": {
			"abi": [
				{
					"inputs": [
						{
							"internalType": "uint256",
							"name": "_favoriteNumber",
							"type": "uint256"
						},
						{
							"internalType": "string",
							"name": "_name",
							"type": "string"
						}
					],
					"name": "addPerson",
					"outputs": [],
					"stateMutability": "nonpayable",
					"type": "function"
				},
				{
					"inputs": [
						{
							"internalType": "uint256",
							"name": "",
							"type": "uint256"
						}
					],
					"name": "favoriteNumberToName",
					"outputs": [
						{
							"internalType": "string",
							"name": "",
							"type": "string"
						}
					],
					"stateMutability": "view",
					"type": "function"
				},
				{
					"inputs": [
						{
							"internalType": "uint256",
							"name": "",
							"type": "uint256"
						}
					],
					"name": "listOfPeople",
					"outputs": [
						{
							"internalType": "uint256",
							"name": "favoriteNumber",
							"type": "uint256"
						},
						{
							"internalType": "string",
							"name": "name",
							"type": "string"
						}
					],
					"stateMutability": "view",
					"type": "function"
				},
				{
					"inputs": [
						{
							"internalType": "string",
							"name": "",
							"type": "string"
						}
					],
					"name": "nameToFavoriteNumber",
					"outputs": [
						{
							"internalType": "uint256",
							"name": "",
							"type": "uint256"
						}
					],
					"stateMutability": "view",
					"type": "function"
				},
				{
					"inputs": [],
					"name": "retrieve",
					"outputs": [
						{
							"internalType": "uint256",
							"name": "",
							"type": "uint256"
						}
					],
					"stateMutability": "view",
					"type": "function"
				},
				{
					"inputs": [
						{
							"internalType": "uint256",
							"name": "_newNumber",
							"type": "uint256"
						}
					],
					"name": "store",
					"outputs": [],
					"stateMutability": "nonpayable",
					"type": "function"
				}
			],
			"devdoc": {
				"kind": "dev",
				"methods": {},
				"version": 1
			},
			"evm": {
				"assembly": "    /* \"contracts/AddFiveStorage.sol\":110:314  contract AddFiveStorage is SimpleStorage{... */\n  mstore(0x40, 0x80)\n  callvalue\n  dup1\n  iszero\n  tag_1\n  jumpi\n  revert(0x00, 0x00)\ntag_1:\n  pop\n  dataSize(sub_0)\n  dup1\n  dataOffset(sub_0)\n  0x00\n  codecopy\n  0x00\n  return\nstop\n\nsub_0: assembly {\n        /* \"contracts/AddFiveStorage.sol\":110:314  contract AddFiveStorage is SimpleStorage{... */\n      mstore(0x40, 0x80)\n      callvalue\n      dup1\n      iszero\n      tag_1\n      jumpi\n      revert(0x00, 0x00)\n    tag_1:\n      pop\n      jumpi(tag_2, lt(calldatasize, 0x04))\n      shr(0xe0, calldataload(0x00))\n      dup1\n      0x2e64cec1\n      eq\n      tag_3\n      jumpi\n      dup1\n      0x2ebce631\n      eq\n      tag_4\n      jumpi\n      dup1\n      0x6057361d\n      eq\n      tag_5\n      jumpi\n      dup1\n      0x8bab8dd5\n      eq\n      tag_6\n      jumpi\n      dup1\n      0xbc832d4e\n      eq\n      tag_7\n      jumpi\n      dup1\n      0xfe379145\n      eq\n      tag_8\n      jumpi\n    tag_2:\n      revert(0x00, 0x00)\n        /* \"contracts/SimpleStorage.sol\":794:882  function retrieve() public view returns(uint256){... */\n    tag_3:\n      tag_9\n      tag_10\n      jump\t// in\n    tag_9:\n      mload(0x40)\n      tag_11\n      swap2\n      swap1\n      tag_12\n      jump\t// in\n    tag_11:\n      mload(0x40)\n      dup1\n      swap2\n      sub\n      swap1\n      return\n        /* \"contracts/SimpleStorage.sol\":526:554  Person[] public listOfPeople */\n    tag_4:\n      tag_13\n      0x04\n      dup1\n      calldatasize\n      sub\n      dup2\n      add\n      swap1\n      tag_14\n      swap2\n      swap1\n      tag_15\n      jump\t// in\n    tag_14:\n      tag_16\n      jump\t// in\n    tag_13:\n      mload(0x40)\n      tag_17\n      swap3\n      swap2\n      swap1\n      tag_18\n      jump\t// in\n    tag_17:\n      mload(0x40)\n      dup1\n      swap2\n      sub\n      swap1\n      return\n        /* \"contracts/AddFiveStorage.sol\":210:311  function store(uint256 _newNumber) public override {... */\n    tag_5:\n      tag_19\n      0x04\n      dup1\n      calldatasize\n      sub\n      dup2\n      add\n      swap1\n      tag_20\n      swap2\n      swap1\n      tag_15\n      jump\t// in\n    tag_20:\n      tag_21\n      jump\t// in\n    tag_19:\n      stop\n        /* \"contracts/SimpleStorage.sol\":561:615  mapping(string => uint256) public nameToFavoriteNumber */\n    tag_6:\n      tag_22\n      0x04\n      dup1\n      calldatasize\n      sub\n      dup2\n      add\n      swap1\n      tag_23\n      swap2\n      swap1\n      tag_24\n      jump\t// in\n    tag_23:\n      tag_25\n      jump\t// in\n    tag_22:\n      mload(0x40)\n      tag_26\n      swap2\n      swap1\n      tag_12\n      jump\t// in\n    tag_26:\n      mload(0x40)\n      dup1\n      swap2\n      sub\n      swap1\n      return\n        /* \"contracts/SimpleStorage.sol\":888:1136  function addPerson(uint256 _favoriteNumber, string memory _name) public {... */\n    tag_7:\n      tag_27\n      0x04\n      dup1\n      calldatasize\n      sub\n      dup2\n      add\n      swap1\n      tag_28\n      swap2\n      swap1\n      tag_29\n      jump\t// in\n    tag_28:\n      tag_30\n      jump\t// in\n    tag_27:\n      stop\n        /* \"contracts/SimpleStorage.sol\":621:675  mapping(uint256 => string) public favoriteNumberToName */\n    tag_8:\n      tag_31\n      0x04\n      dup1\n      calldatasize\n      sub\n      dup2\n      add\n      swap1\n      tag_32\n      swap2\n      swap1\n      tag_15\n      jump\t// in\n    tag_32:\n      tag_33\n      jump\t// in\n    tag_31:\n      mload(0x40)\n      tag_34\n      swap2\n      swap1\n      tag_35\n      jump\t// in\n    tag_34:\n      mload(0x40)\n      dup1\n      swap2\n      sub\n      swap1\n      return\n        /* \"contracts/SimpleStorage.sol\":794:882  function retrieve() public view returns(uint256){... */\n    tag_10:\n        /* \"contracts/SimpleStorage.sol\":834:841  uint256 */\n      0x00\n        /* \"contracts/SimpleStorage.sol\":859:875  myFavoriteNumber */\n      sload(0x00)\n        /* \"contracts/SimpleStorage.sol\":852:875  return myFavoriteNumber */\n      swap1\n      pop\n        /* \"contracts/SimpleStorage.sol\":794:882  function retrieve() public view returns(uint256){... */\n      swap1\n      jump\t// out\n        /* \"contracts/SimpleStorage.sol\":526:554  Person[] public listOfPeople */\n    tag_16:\n      0x01\n      dup2\n      dup2\n      sload\n      dup2\n      lt\n      tag_37\n      jumpi\n      0x00\n      dup1\n      revert\n    tag_37:\n      swap1\n      0x00\n      mstore\n      keccak256(0x00, 0x20)\n      swap1\n      0x02\n      mul\n      add\n      0x00\n      swap2\n      pop\n      swap1\n      pop\n      dup1\n      0x00\n      add\n      sload\n      swap1\n      dup1\n      0x01\n      add\n      dup1\n      sload\n      tag_39\n      swap1\n      tag_40\n      jump\t// in\n    tag_39:\n      dup1\n      0x1f\n      add\n      0x20\n      dup1\n      swap2\n      div\n      mul\n      0x20\n      add\n      mload(0x40)\n      swap1\n      dup2\n      add\n      0x40\n      mstore\n      dup1\n      swap3\n      swap2\n      swap1\n      dup2\n      dup2\n      mstore\n      0x20\n      add\n      dup3\n      dup1\n      sload\n      tag_41\n      swap1\n      tag_40\n      jump\t// in\n    tag_41:\n      dup1\n      iszero\n      tag_42\n      jumpi\n      dup1\n      0x1f\n      lt\n      tag_43\n      jumpi\n      0x0100\n      dup1\n      dup4\n      sload\n      div\n      mul\n      dup4\n      mstore\n      swap2\n      0x20\n      add\n      swap2\n      jump(tag_42)\n    tag_43:\n      dup3\n      add\n      swap2\n      swap1\n      0x00\n      mstore\n      keccak256(0x00, 0x20)\n      swap1\n    tag_44:\n      dup2\n      sload\n      dup2\n      mstore\n      swap1\n      0x01\n      add\n      swap1\n      0x20\n      add\n      dup1\n      dup4\n      gt\n      tag_44\n      jumpi\n      dup3\n      swap1\n      sub\n      0x1f\n      and\n      dup3\n      add\n      swap2\n    tag_42:\n      pop\n      pop\n      pop\n      pop\n      pop\n      swap1\n      pop\n      dup3\n      jump\t// out\n        /* \"contracts/AddFiveStorage.sol\":210:311  function store(uint256 _newNumber) public override {... */\n    tag_21:\n        /* \"contracts/AddFiveStorage.sol\":303:304  5 */\n      0x05\n        /* \"contracts/AddFiveStorage.sol\":290:300  _newNumber */\n      dup2\n        /* \"contracts/AddFiveStorage.sol\":290:304  _newNumber + 5 */\n      tag_46\n      swap2\n      swap1\n      tag_47\n      jump\t// in\n    tag_46:\n        /* \"contracts/AddFiveStorage.sol\":271:287  myFavoriteNumber */\n      0x00\n        /* \"contracts/AddFiveStorage.sol\":271:304  myFavoriteNumber = _newNumber + 5 */\n      dup2\n      swap1\n      sstore\n      pop\n        /* \"contracts/AddFiveStorage.sol\":210:311  function store(uint256 _newNumber) public override {... */\n      pop\n      jump\t// out\n        /* \"contracts/SimpleStorage.sol\":561:615  mapping(string => uint256) public nameToFavoriteNumber */\n    tag_25:\n      0x02\n      dup2\n      dup1\n      mload\n      0x20\n      dup2\n      add\n      dup3\n      add\n      dup1\n      mload\n      dup5\n      dup3\n      mstore\n      0x20\n      dup4\n      add\n      0x20\n      dup6\n      add\n      keccak256\n      dup2\n      dup4\n      mstore\n      dup1\n      swap6\n      pop\n      pop\n      pop\n      pop\n      pop\n      pop\n      0x00\n      swap2\n      pop\n      swap1\n      pop\n      sload\n      dup2\n      jump\t// out\n        /* \"contracts/SimpleStorage.sol\":888:1136  function addPerson(uint256 _favoriteNumber, string memory _name) public {... */\n    tag_30:\n        /* \"contracts/SimpleStorage.sol\":970:982  listOfPeople */\n      0x01\n        /* \"contracts/SimpleStorage.sol\":988:1018  Person(_favoriteNumber, _name) */\n      mload(0x40)\n      dup1\n      0x40\n      add\n      0x40\n      mstore\n      dup1\n        /* \"contracts/SimpleStorage.sol\":995:1010  _favoriteNumber */\n      dup5\n        /* \"contracts/SimpleStorage.sol\":988:1018  Person(_favoriteNumber, _name) */\n      dup2\n      mstore\n      0x20\n      add\n        /* \"contracts/SimpleStorage.sol\":1012:1017  _name */\n      dup4\n        /* \"contracts/SimpleStorage.sol\":988:1018  Person(_favoriteNumber, _name) */\n      dup2\n      mstore\n      pop\n        /* \"contracts/SimpleStorage.sol\":970:1019  listOfPeople.push(Person(_favoriteNumber, _name)) */\n      swap1\n      dup1\n      0x01\n      dup2\n      sload\n      add\n      dup1\n      dup3\n      sstore\n      dup1\n      swap2\n      pop\n      pop\n      0x01\n      swap1\n      sub\n      swap1\n      0x00\n      mstore\n      keccak256(0x00, 0x20)\n      swap1\n      0x02\n      mul\n      add\n      0x00\n      swap1\n      swap2\n      swap1\n      swap2\n      swap1\n      swap2\n      pop\n      0x00\n      dup3\n      add\n      mload\n      dup2\n      0x00\n      add\n      sstore\n      0x20\n      dup3\n      add\n      mload\n      dup2\n      0x01\n      add\n      swap1\n      dup2\n      tag_50\n      swap2\n      swap1\n      tag_51\n      jump\t// in\n    tag_50:\n      pop\n      pop\n      pop\n        /* \"contracts/SimpleStorage.sol\":1059:1074  _favoriteNumber */\n      dup2\n        /* \"contracts/SimpleStorage.sol\":1029:1049  nameToFavoriteNumber */\n      0x02\n        /* \"contracts/SimpleStorage.sol\":1050:1055  _name */\n      dup3\n        /* \"contracts/SimpleStorage.sol\":1029:1056  nameToFavoriteNumber[_name] */\n      mload(0x40)\n      tag_52\n      swap2\n      swap1\n      tag_53\n      jump\t// in\n    tag_52:\n      swap1\n      dup2\n      mstore\n      0x20\n      add\n      mload(0x40)\n      dup1\n      swap2\n      sub\n      swap1\n      keccak256\n        /* \"contracts/SimpleStorage.sol\":1029:1074  nameToFavoriteNumber[_name] = _favoriteNumber */\n      dup2\n      swap1\n      sstore\n      pop\n        /* \"contracts/SimpleStorage.sol\":1124:1129  _name */\n      dup1\n        /* \"contracts/SimpleStorage.sol\":1084:1104  favoriteNumberToName */\n      0x03\n        /* \"contracts/SimpleStorage.sol\":1084:1121  favoriteNumberToName[_favoriteNumber] */\n      0x00\n        /* \"contracts/SimpleStorage.sol\":1105:1120  _favoriteNumber */\n      dup5\n        /* \"contracts/SimpleStorage.sol\":1084:1121  favoriteNumberToName[_favoriteNumber] */\n      dup2\n      mstore\n      0x20\n      add\n      swap1\n      dup2\n      mstore\n      0x20\n      add\n      0x00\n      keccak256\n        /* \"contracts/SimpleStorage.sol\":1084:1129  favoriteNumberToName[_favoriteNumber] = _name */\n      swap1\n      dup2\n      tag_54\n      swap2\n      swap1\n      tag_51\n      jump\t// in\n    tag_54:\n      pop\n        /* \"contracts/SimpleStorage.sol\":888:1136  function addPerson(uint256 _favoriteNumber, string memory _name) public {... */\n      pop\n      pop\n      jump\t// out\n        /* \"contracts/SimpleStorage.sol\":621:675  mapping(uint256 => string) public favoriteNumberToName */\n    tag_33:\n      mstore(0x20, 0x03)\n      dup1\n      0x00\n      mstore\n      keccak256(0x00, 0x40)\n      0x00\n      swap2\n      pop\n      swap1\n      pop\n      dup1\n      sload\n      tag_55\n      swap1\n      tag_40\n      jump\t// in\n    tag_55:\n      dup1\n      0x1f\n      add\n      0x20\n      dup1\n      swap2\n      div\n      mul\n      0x20\n      add\n      mload(0x40)\n      swap1\n      dup2\n      add\n      0x40\n      mstore\n      dup1\n      swap3\n      swap2\n      swap1\n      dup2\n      dup2\n      mstore\n      0x20\n      add\n      dup3\n      dup1\n      sload\n      tag_56\n      swap1\n      tag_40\n      jump\t// in\n    tag_56:\n      dup1\n      iszero\n      tag_57\n      jumpi\n      dup1\n      0x1f\n      lt\n      tag_58\n      jumpi\n      0x0100\n      dup1\n      dup4\n      sload\n      div\n      mul\n      dup4\n      mstore\n      swap2\n      0x20\n      add\n      swap2\n      jump(tag_57)\n    tag_58:\n      dup3\n      add\n      swap2\n      swap1\n      0x00\n      mstore\n      keccak256(0x00, 0x20)\n      swap1\n    tag_59:\n      dup2\n      sload\n      dup2\n      mstore\n      swap1\n      0x01\n      add\n      swap1\n      0x20\n      add\n      dup1\n      dup4\n      gt\n      tag_59\n      jumpi\n      dup3\n      swap1\n      sub\n      0x1f\n      and\n      dup3\n      add\n      swap2\n    tag_57:\n      pop\n      pop\n      pop\n      pop\n      pop\n      dup2\n      jump\t// out\n        /* \"#utility.yul\":7:84   */\n    tag_60:\n        /* \"#utility.yul\":44:51   */\n      0x00\n        /* \"#utility.yul\":73:78   */\n      dup2\n        /* \"#utility.yul\":62:78   */\n      swap1\n      pop\n        /* \"#utility.yul\":7:84   */\n      swap2\n      swap1\n      pop\n      jump\t// out\n        /* \"#utility.yul\":90:208   */\n    tag_61:\n        /* \"#utility.yul\":177:201   */\n      tag_103\n        /* \"#utility.yul\":195:200   */\n      dup2\n        /* \"#utility.yul\":177:201   */\n      tag_60\n      jump\t// in\n    tag_103:\n        /* \"#utility.yul\":172:175   */\n      dup3\n        /* \"#utility.yul\":165:202   */\n      mstore\n        /* \"#utility.yul\":90:208   */\n      pop\n      pop\n      jump\t// out\n        /* \"#utility.yul\":214:436   */\n    tag_12:\n        /* \"#utility.yul\":307:311   */\n      0x00\n        /* \"#utility.yul\":345:347   */\n      0x20\n        /* \"#utility.yul\":334:343   */\n      dup3\n        /* \"#utility.yul\":330:348   */\n      add\n        /* \"#utility.yul\":322:348   */\n      swap1\n      pop\n        /* \"#utility.yul\":358:429   */\n      tag_105\n        /* \"#utility.yul\":426:427   */\n      0x00\n        /* \"#utility.yul\":415:424   */\n      dup4\n        /* \"#utility.yul\":411:428   */\n      add\n        /* \"#utility.yul\":402:408   */\n      dup5\n        /* \"#utility.yul\":358:429   */\n      tag_61\n      jump\t// in\n    tag_105:\n        /* \"#utility.yul\":214:436   */\n      swap3\n      swap2\n      pop\n      pop\n      jump\t// out\n        /* \"#utility.yul\":442:517   */\n    tag_62:\n        /* \"#utility.yul\":475:481   */\n      0x00\n        /* \"#utility.yul\":508:510   */\n      0x40\n        /* \"#utility.yul\":502:511   */\n      mload\n        /* \"#utility.yul\":492:511   */\n      swap1\n      pop\n        /* \"#utility.yul\":442:517   */\n      swap1\n      jump\t// out\n        /* \"#utility.yul\":523:640   */\n    tag_63:\n        /* \"#utility.yul\":632:633   */\n      0x00\n        /* \"#utility.yul\":629:630   */\n      0x00\n        /* \"#utility.yul\":622:634   */\n      revert\n        /* \"#utility.yul\":646:763   */\n    tag_64:\n        /* \"#utility.yul\":755:756   */\n      0x00\n        /* \"#utility.yul\":752:753   */\n      0x00\n        /* \"#utility.yul\":745:757   */\n      revert\n        /* \"#utility.yul\":769:891   */\n    tag_65:\n        /* \"#utility.yul\":842:866   */\n      tag_110\n        /* \"#utility.yul\":860:865   */\n      dup2\n        /* \"#utility.yul\":842:866   */\n      tag_60\n      jump\t// in\n    tag_110:\n        /* \"#utility.yul\":835:840   */\n      dup2\n        /* \"#utility.yul\":832:867   */\n      eq\n        /* \"#utility.yul\":822:885   */\n      tag_111\n      jumpi\n        /* \"#utility.yul\":881:882   */\n      0x00\n        /* \"#utility.yul\":878:879   */\n      0x00\n        /* \"#utility.yul\":871:883   */\n      revert\n        /* \"#utility.yul\":822:885   */\n    tag_111:\n        /* \"#utility.yul\":769:891   */\n      pop\n      jump\t// out\n        /* \"#utility.yul\":897:1036   */\n    tag_66:\n        /* \"#utility.yul\":943:948   */\n      0x00\n        /* \"#utility.yul\":981:987   */\n      dup2\n        /* \"#utility.yul\":968:988   */\n      calldataload\n        /* \"#utility.yul\":959:988   */\n      swap1\n      pop\n        /* \"#utility.yul\":997:1030   */\n      tag_113\n        /* \"#utility.yul\":1024:1029   */\n      dup2\n        /* \"#utility.yul\":997:1030   */\n      tag_65\n      jump\t// in\n    tag_113:\n        /* \"#utility.yul\":897:1036   */\n      swap3\n      swap2\n      pop\n      pop\n      jump\t// out\n        /* \"#utility.yul\":1042:1371   */\n    tag_15:\n        /* \"#utility.yul\":1101:1107   */\n      0x00\n        /* \"#utility.yul\":1150:1152   */\n      0x20\n        /* \"#utility.yul\":1138:1147   */\n      dup3\n        /* \"#utility.yul\":1129:1136   */\n      dup5\n        /* \"#utility.yul\":1125:1148   */\n      sub\n        /* \"#utility.yul\":1121:1153   */\n      slt\n        /* \"#utility.yul\":1118:1237   */\n      iszero\n      tag_115\n      jumpi\n        /* \"#utility.yul\":1156:1235   */\n      tag_116\n      tag_63\n      jump\t// in\n    tag_116:\n        /* \"#utility.yul\":1118:1237   */\n    tag_115:\n        /* \"#utility.yul\":1276:1277   */\n      0x00\n        /* \"#utility.yul\":1301:1354   */\n      tag_117\n        /* \"#utility.yul\":1346:1353   */\n      dup5\n        /* \"#utility.yul\":1337:1343   */\n      dup3\n        /* \"#utility.yul\":1326:1335   */\n      dup6\n        /* \"#utility.yul\":1322:1344   */\n      add\n        /* \"#utility.yul\":1301:1354   */\n      tag_66\n      jump\t// in\n    tag_117:\n        /* \"#utility.yul\":1291:1354   */\n      swap2\n      pop\n        /* \"#utility.yul\":1247:1364   */\n      pop\n        /* \"#utility.yul\":1042:1371   */\n      swap3\n      swap2\n      pop\n      pop\n      jump\t// out\n        /* \"#utility.yul\":1377:1476   */\n    tag_67:\n        /* \"#utility.yul\":1429:1435   */\n      0x00\n        /* \"#utility.yul\":1463:1468   */\n      dup2\n        /* \"#utility.yul\":1457:1469   */\n      mload\n        /* \"#utility.yul\":1447:1469   */\n      swap1\n      pop\n        /* \"#utility.yul\":1377:1476   */\n      swap2\n      swap1\n      pop\n      jump\t// out\n        /* \"#utility.yul\":1482:1651   */\n    tag_68:\n        /* \"#utility.yul\":1566:1577   */\n      0x00\n        /* \"#utility.yul\":1600:1606   */\n      dup3\n        /* \"#utility.yul\":1595:1598   */\n      dup3\n        /* \"#utility.yul\":1588:1607   */\n      mstore\n        /* \"#utility.yul\":1640:1644   */\n      0x20\n        /* \"#utility.yul\":1635:1638   */\n      dup3\n        /* \"#utility.yul\":1631:1645   */\n      add\n        /* \"#utility.yul\":1616:1645   */\n      swap1\n      pop\n        /* \"#utility.yul\":1482:1651   */\n      swap3\n      swap2\n      pop\n      pop\n      jump\t// out\n        /* \"#utility.yul\":1657:1796   */\n    tag_69:\n        /* \"#utility.yul\":1746:1752   */\n      dup3\n        /* \"#utility.yul\":1741:1744   */\n      dup2\n        /* \"#utility.yul\":1736:1739   */\n      dup4\n        /* \"#utility.yul\":1730:1753   */\n      mcopy\n        /* \"#utility.yul\":1787:1788   */\n      0x00\n        /* \"#utility.yul\":1778:1784   */\n      dup4\n        /* \"#utility.yul\":1773:1776   */\n      dup4\n        /* \"#utility.yul\":1769:1785   */\n      add\n        /* \"#utility.yul\":1762:1789   */\n      mstore\n        /* \"#utility.yul\":1657:1796   */\n      pop\n      pop\n      pop\n      jump\t// out\n        /* \"#utility.yul\":1802:1904   */\n    tag_70:\n        /* \"#utility.yul\":1843:1849   */\n      0x00\n        /* \"#utility.yul\":1894:1896   */\n      0x1f\n        /* \"#utility.yul\":1890:1897   */\n      not\n        /* \"#utility.yul\":1885:1887   */\n      0x1f\n        /* \"#utility.yul\":1878:1883   */\n      dup4\n        /* \"#utility.yul\":1874:1888   */\n      add\n        /* \"#utility.yul\":1870:1898   */\n      and\n        /* \"#utility.yul\":1860:1898   */\n      swap1\n      pop\n        /* \"#utility.yul\":1802:1904   */\n      swap2\n      swap1\n      pop\n      jump\t// out\n        /* \"#utility.yul\":1910:2287   */\n    tag_71:\n        /* \"#utility.yul\":1998:2001   */\n      0x00\n        /* \"#utility.yul\":2026:2065   */\n      tag_123\n        /* \"#utility.yul\":2059:2064   */\n      dup3\n        /* \"#utility.yul\":2026:2065   */\n      tag_67\n      jump\t// in\n    tag_123:\n        /* \"#utility.yul\":2081:2152   */\n      tag_124\n        /* \"#utility.yul\":2145:2151   */\n      dup2\n        /* \"#utility.yul\":2140:2143   */\n      dup6\n        /* \"#utility.yul\":2081:2152   */\n      tag_68\n      jump\t// in\n    tag_124:\n        /* \"#utility.yul\":2074:2152   */\n      swap4\n      pop\n        /* \"#utility.yul\":2161:2226   */\n      tag_125\n        /* \"#utility.yul\":2219:2225   */\n      dup2\n        /* \"#utility.yul\":2214:2217   */\n      dup6\n        /* \"#utility.yul\":2207:2211   */\n      0x20\n        /* \"#utility.yul\":2200:2205   */\n      dup7\n        /* \"#utility.yul\":2196:2212   */\n      add\n        /* \"#utility.yul\":2161:2226   */\n      tag_69\n      jump\t// in\n    tag_125:\n        /* \"#utility.yul\":2251:2280   */\n      tag_126\n        /* \"#utility.yul\":2273:2279   */\n      dup2\n        /* \"#utility.yul\":2251:2280   */\n      tag_70\n      jump\t// in\n    tag_126:\n        /* \"#utility.yul\":2246:2249   */\n      dup5\n        /* \"#utility.yul\":2242:2281   */\n      add\n        /* \"#utility.yul\":2235:2281   */\n      swap2\n      pop\n        /* \"#utility.yul\":2002:2287   */\n      pop\n        /* \"#utility.yul\":1910:2287   */\n      swap3\n      swap2\n      pop\n      pop\n      jump\t// out\n        /* \"#utility.yul\":2293:2716   */\n    tag_18:\n        /* \"#utility.yul\":2434:2438   */\n      0x00\n        /* \"#utility.yul\":2472:2474   */\n      0x40\n        /* \"#utility.yul\":2461:2470   */\n      dup3\n        /* \"#utility.yul\":2457:2475   */\n      add\n        /* \"#utility.yul\":2449:2475   */\n      swap1\n      pop\n        /* \"#utility.yul\":2485:2556   */\n      tag_128\n        /* \"#utility.yul\":2553:2554   */\n      0x00\n        /* \"#utility.yul\":2542:2551   */\n      dup4\n        /* \"#utility.yul\":2538:2555   */\n      add\n        /* \"#utility.yul\":2529:2535   */\n      dup6\n        /* \"#utility.yul\":2485:2556   */\n      tag_61\n      jump\t// in\n    tag_128:\n        /* \"#utility.yul\":2603:2612   */\n      dup2\n        /* \"#utility.yul\":2597:2601   */\n      dup2\n        /* \"#utility.yul\":2593:2613   */\n      sub\n        /* \"#utility.yul\":2588:2590   */\n      0x20\n        /* \"#utility.yul\":2577:2586   */\n      dup4\n        /* \"#utility.yul\":2573:2591   */\n      add\n        /* \"#utility.yul\":2566:2614   */\n      mstore\n        /* \"#utility.yul\":2631:2709   */\n      tag_129\n        /* \"#utility.yul\":2704:2708   */\n      dup2\n        /* \"#utility.yul\":2695:2701   */\n      dup5\n        /* \"#utility.yul\":2631:2709   */\n      tag_71\n      jump\t// in\n    tag_129:\n        /* \"#utility.yul\":2623:2709   */\n      swap1\n      pop\n        /* \"#utility.yul\":2293:2716   */\n      swap4\n      swap3\n      pop\n      pop\n      pop\n      jump\t// out\n        /* \"#utility.yul\":2722:2839   */\n    tag_72:\n        /* \"#utility.yul\":2831:2832   */\n      0x00\n        /* \"#utility.yul\":2828:2829   */\n      0x00\n        /* \"#utility.yul\":2821:2833   */\n      revert\n        /* \"#utility.yul\":2845:2962   */\n    tag_73:\n        /* \"#utility.yul\":2954:2955   */\n      0x00\n        /* \"#utility.yul\":2951:2952   */\n      0x00\n        /* \"#utility.yul\":2944:2956   */\n      revert\n        /* \"#utility.yul\":2968:3148   */\n    tag_74:\n        /* \"#utility.yul\":3016:3093   */\n      0x4e487b7100000000000000000000000000000000000000000000000000000000\n        /* \"#utility.yul\":3013:3014   */\n      0x00\n        /* \"#utility.yul\":3006:3094   */\n      mstore\n        /* \"#utility.yul\":3113:3117   */\n      0x41\n        /* \"#utility.yul\":3110:3111   */\n      0x04\n        /* \"#utility.yul\":3103:3118   */\n      mstore\n        /* \"#utility.yul\":3137:3141   */\n      0x24\n        /* \"#utility.yul\":3134:3135   */\n      0x00\n        /* \"#utility.yul\":3127:3142   */\n      revert\n        /* \"#utility.yul\":3154:3435   */\n    tag_75:\n        /* \"#utility.yul\":3237:3264   */\n      tag_134\n        /* \"#utility.yul\":3259:3263   */\n      dup3\n        /* \"#utility.yul\":3237:3264   */\n      tag_70\n      jump\t// in\n    tag_134:\n        /* \"#utility.yul\":3229:3235   */\n      dup2\n        /* \"#utility.yul\":3225:3265   */\n      add\n        /* \"#utility.yul\":3367:3373   */\n      dup2\n        /* \"#utility.yul\":3355:3365   */\n      dup2\n        /* \"#utility.yul\":3352:3374   */\n      lt\n        /* \"#utility.yul\":3331:3349   */\n      0xffffffffffffffff\n        /* \"#utility.yul\":3319:3329   */\n      dup3\n        /* \"#utility.yul\":3316:3350   */\n      gt\n        /* \"#utility.yul\":3313:3375   */\n      or\n        /* \"#utility.yul\":3310:3398   */\n      iszero\n      tag_135\n      jumpi\n        /* \"#utility.yul\":3378:3396   */\n      tag_136\n      tag_74\n      jump\t// in\n    tag_136:\n        /* \"#utility.yul\":3310:3398   */\n    tag_135:\n        /* \"#utility.yul\":3418:3428   */\n      dup1\n        /* \"#utility.yul\":3414:3416   */\n      0x40\n        /* \"#utility.yul\":3407:3429   */\n      mstore\n        /* \"#utility.yul\":3197:3435   */\n      pop\n        /* \"#utility.yul\":3154:3435   */\n      pop\n      pop\n      jump\t// out\n        /* \"#utility.yul\":3441:3570   */\n    tag_76:\n        /* \"#utility.yul\":3475:3481   */\n      0x00\n        /* \"#utility.yul\":3502:3522   */\n      tag_138\n      tag_62\n      jump\t// in\n    tag_138:\n        /* \"#utility.yul\":3492:3522   */\n      swap1\n      pop\n        /* \"#utility.yul\":3531:3564   */\n      tag_139\n        /* \"#utility.yul\":3559:3563   */\n      dup3\n        /* \"#utility.yul\":3551:3557   */\n      dup3\n        /* \"#utility.yul\":3531:3564   */\n      tag_75\n      jump\t// in\n    tag_139:\n        /* \"#utility.yul\":3441:3570   */\n      swap2\n      swap1\n      pop\n      jump\t// out\n        /* \"#utility.yul\":3576:3884   */\n    tag_77:\n        /* \"#utility.yul\":3638:3642   */\n      0x00\n        /* \"#utility.yul\":3728:3746   */\n      0xffffffffffffffff\n        /* \"#utility.yul\":3720:3726   */\n      dup3\n        /* \"#utility.yul\":3717:3747   */\n      gt\n        /* \"#utility.yul\":3714:3770   */\n      iszero\n      tag_141\n      jumpi\n        /* \"#utility.yul\":3750:3768   */\n      tag_142\n      tag_74\n      jump\t// in\n    tag_142:\n        /* \"#utility.yul\":3714:3770   */\n    tag_141:\n        /* \"#utility.yul\":3788:3817   */\n      tag_143\n        /* \"#utility.yul\":3810:3816   */\n      dup3\n        /* \"#utility.yul\":3788:3817   */\n      tag_70\n      jump\t// in\n    tag_143:\n        /* \"#utility.yul\":3780:3817   */\n      swap1\n      pop\n        /* \"#utility.yul\":3872:3876   */\n      0x20\n        /* \"#utility.yul\":3866:3870   */\n      dup2\n        /* \"#utility.yul\":3862:3877   */\n      add\n        /* \"#utility.yul\":3854:3877   */\n      swap1\n      pop\n        /* \"#utility.yul\":3576:3884   */\n      swap2\n      swap1\n      pop\n      jump\t// out\n        /* \"#utility.yul\":3890:4038   */\n    tag_78:\n        /* \"#utility.yul\":3988:3994   */\n      dup3\n        /* \"#utility.yul\":3983:3986   */\n      dup2\n        /* \"#utility.yul\":3978:3981   */\n      dup4\n        /* \"#utility.yul\":3965:3995   */\n      calldatacopy\n        /* \"#utility.yul\":4029:4030   */\n      0x00\n        /* \"#utility.yul\":4020:4026   */\n      dup4\n        /* \"#utility.yul\":4015:4018   */\n      dup4\n        /* \"#utility.yul\":4011:4027   */\n      add\n        /* \"#utility.yul\":4004:4031   */\n      mstore\n        /* \"#utility.yul\":3890:4038   */\n      pop\n      pop\n      pop\n      jump\t// out\n        /* \"#utility.yul\":4044:4469   */\n    tag_79:\n        /* \"#utility.yul\":4122:4127   */\n      0x00\n        /* \"#utility.yul\":4147:4213   */\n      tag_146\n        /* \"#utility.yul\":4163:4212   */\n      tag_147\n        /* \"#utility.yul\":4205:4211   */\n      dup5\n        /* \"#utility.yul\":4163:4212   */\n      tag_77\n      jump\t// in\n    tag_147:\n        /* \"#utility.yul\":4147:4213   */\n      tag_76\n      jump\t// in\n    tag_146:\n        /* \"#utility.yul\":4138:4213   */\n      swap1\n      pop\n        /* \"#utility.yul\":4236:4242   */\n      dup3\n        /* \"#utility.yul\":4229:4234   */\n      dup2\n        /* \"#utility.yul\":4222:4243   */\n      mstore\n        /* \"#utility.yul\":4274:4278   */\n      0x20\n        /* \"#utility.yul\":4267:4272   */\n      dup2\n        /* \"#utility.yul\":4263:4279   */\n      add\n        /* \"#utility.yul\":4312:4315   */\n      dup5\n        /* \"#utility.yul\":4303:4309   */\n      dup5\n        /* \"#utility.yul\":4298:4301   */\n      dup5\n        /* \"#utility.yul\":4294:4310   */\n      add\n        /* \"#utility.yul\":4291:4316   */\n      gt\n        /* \"#utility.yul\":4288:4400   */\n      iszero\n      tag_148\n      jumpi\n        /* \"#utility.yul\":4319:4398   */\n      tag_149\n      tag_73\n      jump\t// in\n    tag_149:\n        /* \"#utility.yul\":4288:4400   */\n    tag_148:\n        /* \"#utility.yul\":4409:4463   */\n      tag_150\n        /* \"#utility.yul\":4456:4462   */\n      dup5\n        /* \"#utility.yul\":4451:4454   */\n      dup3\n        /* \"#utility.yul\":4446:4449   */\n      dup6\n        /* \"#utility.yul\":4409:4463   */\n      tag_78\n      jump\t// in\n    tag_150:\n        /* \"#utility.yul\":4128:4469   */\n      pop\n        /* \"#utility.yul\":4044:4469   */\n      swap4\n      swap3\n      pop\n      pop\n      pop\n      jump\t// out\n        /* \"#utility.yul\":4489:4829   */\n    tag_80:\n        /* \"#utility.yul\":4545:4550   */\n      0x00\n        /* \"#utility.yul\":4594:4597   */\n      dup3\n        /* \"#utility.yul\":4587:4591   */\n      0x1f\n        /* \"#utility.yul\":4579:4585   */\n      dup4\n        /* \"#utility.yul\":4575:4592   */\n      add\n        /* \"#utility.yul\":4571:4598   */\n      slt\n        /* \"#utility.yul\":4561:4683   */\n      tag_152\n      jumpi\n        /* \"#utility.yul\":4602:4681   */\n      tag_153\n      tag_72\n      jump\t// in\n    tag_153:\n        /* \"#utility.yul\":4561:4683   */\n    tag_152:\n        /* \"#utility.yul\":4719:4725   */\n      dup2\n        /* \"#utility.yul\":4706:4726   */\n      calldataload\n        /* \"#utility.yul\":4744:4823   */\n      tag_154\n        /* \"#utility.yul\":4819:4822   */\n      dup5\n        /* \"#utility.yul\":4811:4817   */\n      dup3\n        /* \"#utility.yul\":4804:4808   */\n      0x20\n        /* \"#utility.yul\":4796:4802   */\n      dup7\n        /* \"#utility.yul\":4792:4809   */\n      add\n        /* \"#utility.yul\":4744:4823   */\n      tag_79\n      jump\t// in\n    tag_154:\n        /* \"#utility.yul\":4735:4823   */\n      swap2\n      pop\n        /* \"#utility.yul\":4551:4829   */\n      pop\n        /* \"#utility.yul\":4489:4829   */\n      swap3\n      swap2\n      pop\n      pop\n      jump\t// out\n        /* \"#utility.yul\":4835:5344   */\n    tag_24:\n        /* \"#utility.yul\":4904:4910   */\n      0x00\n        /* \"#utility.yul\":4953:4955   */\n      0x20\n        /* \"#utility.yul\":4941:4950   */\n      dup3\n        /* \"#utility.yul\":4932:4939   */\n      dup5\n        /* \"#utility.yul\":4928:4951   */\n      sub\n        /* \"#utility.yul\":4924:4956   */\n      slt\n        /* \"#utility.yul\":4921:5040   */\n      iszero\n      tag_156\n      jumpi\n        /* \"#utility.yul\":4959:5038   */\n      tag_157\n      tag_63\n      jump\t// in\n    tag_157:\n        /* \"#utility.yul\":4921:5040   */\n    tag_156:\n        /* \"#utility.yul\":5107:5108   */\n      0x00\n        /* \"#utility.yul\":5096:5105   */\n      dup3\n        /* \"#utility.yul\":5092:5109   */\n      add\n        /* \"#utility.yul\":5079:5110   */\n      calldataload\n        /* \"#utility.yul\":5137:5155   */\n      0xffffffffffffffff\n        /* \"#utility.yul\":5129:5135   */\n      dup2\n        /* \"#utility.yul\":5126:5156   */\n      gt\n        /* \"#utility.yul\":5123:5240   */\n      iszero\n      tag_158\n      jumpi\n        /* \"#utility.yul\":5159:5238   */\n      tag_159\n      tag_64\n      jump\t// in\n    tag_159:\n        /* \"#utility.yul\":5123:5240   */\n    tag_158:\n        /* \"#utility.yul\":5264:5327   */\n      tag_160\n        /* \"#utility.yul\":5319:5326   */\n      dup5\n        /* \"#utility.yul\":5310:5316   */\n      dup3\n        /* \"#utility.yul\":5299:5308   */\n      dup6\n        /* \"#utility.yul\":5295:5317   */\n      add\n        /* \"#utility.yul\":5264:5327   */\n      tag_80\n      jump\t// in\n    tag_160:\n        /* \"#utility.yul\":5254:5327   */\n      swap2\n      pop\n        /* \"#utility.yul\":5050:5337   */\n      pop\n        /* \"#utility.yul\":4835:5344   */\n      swap3\n      swap2\n      pop\n      pop\n      jump\t// out\n        /* \"#utility.yul\":5350:6004   */\n    tag_29:\n        /* \"#utility.yul\":5428:5434   */\n      0x00\n        /* \"#utility.yul\":5436:5442   */\n      0x00\n        /* \"#utility.yul\":5485:5487   */\n      0x40\n        /* \"#utility.yul\":5473:5482   */\n      dup4\n        /* \"#utility.yul\":5464:5471   */\n      dup6\n        /* \"#utility.yul\":5460:5483   */\n      sub\n        /* \"#utility.yul\":5456:5488   */\n      slt\n        /* \"#utility.yul\":5453:5572   */\n      iszero\n      tag_162\n      jumpi\n        /* \"#utility.yul\":5491:5570   */\n      tag_163\n      tag_63\n      jump\t// in\n    tag_163:\n        /* \"#utility.yul\":5453:5572   */\n    tag_162:\n        /* \"#utility.yul\":5611:5612   */\n      0x00\n        /* \"#utility.yul\":5636:5689   */\n      tag_164\n        /* \"#utility.yul\":5681:5688   */\n      dup6\n        /* \"#utility.yul\":5672:5678   */\n      dup3\n        /* \"#utility.yul\":5661:5670   */\n      dup7\n        /* \"#utility.yul\":5657:5679   */\n      add\n        /* \"#utility.yul\":5636:5689   */\n      tag_66\n      jump\t// in\n    tag_164:\n        /* \"#utility.yul\":5626:5689   */\n      swap3\n      pop\n        /* \"#utility.yul\":5582:5699   */\n      pop\n        /* \"#utility.yul\":5766:5768   */\n      0x20\n        /* \"#utility.yul\":5755:5764   */\n      dup4\n        /* \"#utility.yul\":5751:5769   */\n      add\n        /* \"#utility.yul\":5738:5770   */\n      calldataload\n        /* \"#utility.yul\":5797:5815   */\n      0xffffffffffffffff\n        /* \"#utility.yul\":5789:5795   */\n      dup2\n        /* \"#utility.yul\":5786:5816   */\n      gt\n        /* \"#utility.yul\":5783:5900   */\n      iszero\n      tag_165\n      jumpi\n        /* \"#utility.yul\":5819:5898   */\n      tag_166\n      tag_64\n      jump\t// in\n    tag_166:\n        /* \"#utility.yul\":5783:5900   */\n    tag_165:\n        /* \"#utility.yul\":5924:5987   */\n      tag_167\n        /* \"#utility.yul\":5979:5986   */\n      dup6\n        /* \"#utility.yul\":5970:5976   */\n      dup3\n        /* \"#utility.yul\":5959:5968   */\n      dup7\n        /* \"#utility.yul\":5955:5977   */\n      add\n        /* \"#utility.yul\":5924:5987   */\n      tag_80\n      jump\t// in\n    tag_167:\n        /* \"#utility.yul\":5914:5987   */\n      swap2\n      pop\n        /* \"#utility.yul\":5709:5997   */\n      pop\n        /* \"#utility.yul\":5350:6004   */\n      swap3\n      pop\n      swap3\n      swap1\n      pop\n      jump\t// out\n        /* \"#utility.yul\":6010:6323   */\n    tag_35:\n        /* \"#utility.yul\":6123:6127   */\n      0x00\n        /* \"#utility.yul\":6161:6163   */\n      0x20\n        /* \"#utility.yul\":6150:6159   */\n      dup3\n        /* \"#utility.yul\":6146:6164   */\n      add\n        /* \"#utility.yul\":6138:6164   */\n      swap1\n      pop\n        /* \"#utility.yul\":6210:6219   */\n      dup2\n        /* \"#utility.yul\":6204:6208   */\n      dup2\n        /* \"#utility.yul\":6200:6220   */\n      sub\n        /* \"#utility.yul\":6196:6197   */\n      0x00\n        /* \"#utility.yul\":6185:6194   */\n      dup4\n        /* \"#utility.yul\":6181:6198   */\n      add\n        /* \"#utility.yul\":6174:6221   */\n      mstore\n        /* \"#utility.yul\":6238:6316   */\n      tag_169\n        /* \"#utility.yul\":6311:6315   */\n      dup2\n        /* \"#utility.yul\":6302:6308   */\n      dup5\n        /* \"#utility.yul\":6238:6316   */\n      tag_71\n      jump\t// in\n    tag_169:\n        /* \"#utility.yul\":6230:6316   */\n      swap1\n      pop\n        /* \"#utility.yul\":6010:6323   */\n      swap3\n      swap2\n      pop\n      pop\n      jump\t// out\n        /* \"#utility.yul\":6329:6509   */\n    tag_81:\n        /* \"#utility.yul\":6377:6454   */\n      0x4e487b7100000000000000000000000000000000000000000000000000000000\n        /* \"#utility.yul\":6374:6375   */\n      0x00\n        /* \"#utility.yul\":6367:6455   */\n      mstore\n        /* \"#utility.yul\":6474:6478   */\n      0x22\n        /* \"#utility.yul\":6471:6472   */\n      0x04\n        /* \"#utility.yul\":6464:6479   */\n      mstore\n        /* \"#utility.yul\":6498:6502   */\n      0x24\n        /* \"#utility.yul\":6495:6496   */\n      0x00\n        /* \"#utility.yul\":6488:6503   */\n      revert\n        /* \"#utility.yul\":6515:6835   */\n    tag_40:\n        /* \"#utility.yul\":6559:6565   */\n      0x00\n        /* \"#utility.yul\":6596:6597   */\n      0x02\n        /* \"#utility.yul\":6590:6594   */\n      dup3\n        /* \"#utility.yul\":6586:6598   */\n      div\n        /* \"#utility.yul\":6576:6598   */\n      swap1\n      pop\n        /* \"#utility.yul\":6643:6644   */\n      0x01\n        /* \"#utility.yul\":6637:6641   */\n      dup3\n        /* \"#utility.yul\":6633:6645   */\n      and\n        /* \"#utility.yul\":6664:6682   */\n      dup1\n        /* \"#utility.yul\":6654:6735   */\n      tag_172\n      jumpi\n        /* \"#utility.yul\":6720:6724   */\n      0x7f\n        /* \"#utility.yul\":6712:6718   */\n      dup3\n        /* \"#utility.yul\":6708:6725   */\n      and\n        /* \"#utility.yul\":6698:6725   */\n      swap2\n      pop\n        /* \"#utility.yul\":6654:6735   */\n    tag_172:\n        /* \"#utility.yul\":6782:6784   */\n      0x20\n        /* \"#utility.yul\":6774:6780   */\n      dup3\n        /* \"#utility.yul\":6771:6785   */\n      lt\n        /* \"#utility.yul\":6751:6769   */\n      dup2\n        /* \"#utility.yul\":6748:6786   */\n      sub\n        /* \"#utility.yul\":6745:6829   */\n      tag_173\n      jumpi\n        /* \"#utility.yul\":6801:6819   */\n      tag_174\n      tag_81\n      jump\t// in\n    tag_174:\n        /* \"#utility.yul\":6745:6829   */\n    tag_173:\n        /* \"#utility.yul\":6566:6835   */\n      pop\n        /* \"#utility.yul\":6515:6835   */\n      swap2\n      swap1\n      pop\n      jump\t// out\n        /* \"#utility.yul\":6841:7021   */\n    tag_82:\n        /* \"#utility.yul\":6889:6966   */\n      0x4e487b7100000000000000000000000000000000000000000000000000000000\n        /* \"#utility.yul\":6886:6887   */\n      0x00\n        /* \"#utility.yul\":6879:6967   */\n      mstore\n        /* \"#utility.yul\":6986:6990   */\n      0x11\n        /* \"#utility.yul\":6983:6984   */\n      0x04\n        /* \"#utility.yul\":6976:6991   */\n      mstore\n        /* \"#utility.yul\":7010:7014   */\n      0x24\n        /* \"#utility.yul\":7007:7008   */\n      0x00\n        /* \"#utility.yul\":7000:7015   */\n      revert\n        /* \"#utility.yul\":7027:7218   */\n    tag_47:\n        /* \"#utility.yul\":7067:7070   */\n      0x00\n        /* \"#utility.yul\":7086:7106   */\n      tag_177\n        /* \"#utility.yul\":7104:7105   */\n      dup3\n        /* \"#utility.yul\":7086:7106   */\n      tag_60\n      jump\t// in\n    tag_177:\n        /* \"#utility.yul\":7081:7106   */\n      swap2\n      pop\n        /* \"#utility.yul\":7120:7140   */\n      tag_178\n        /* \"#utility.yul\":7138:7139   */\n      dup4\n        /* \"#utility.yul\":7120:7140   */\n      tag_60\n      jump\t// in\n    tag_178:\n        /* \"#utility.yul\":7115:7140   */\n      swap3\n      pop\n        /* \"#utility.yul\":7163:7164   */\n      dup3\n        /* \"#utility.yul\":7160:7161   */\n      dup3\n        /* \"#utility.yul\":7156:7165   */\n      add\n        /* \"#utility.yul\":7149:7165   */\n      swap1\n      pop\n        /* \"#utility.yul\":7184:7187   */\n      dup1\n        /* \"#utility.yul\":7181:7182   */\n      dup3\n        /* \"#utility.yul\":7178:7188   */\n      gt\n        /* \"#utility.yul\":7175:7211   */\n      iszero\n      tag_179\n      jumpi\n        /* \"#utility.yul\":7191:7209   */\n      tag_180\n      tag_82\n      jump\t// in\n    tag_180:\n        /* \"#utility.yul\":7175:7211   */\n    tag_179:\n        /* \"#utility.yul\":7027:7218   */\n      swap3\n      swap2\n      pop\n      pop\n      jump\t// out\n        /* \"#utility.yul\":7224:7365   */\n    tag_83:\n        /* \"#utility.yul\":7273:7277   */\n      0x00\n        /* \"#utility.yul\":7296:7299   */\n      dup2\n        /* \"#utility.yul\":7288:7299   */\n      swap1\n      pop\n        /* \"#utility.yul\":7319:7322   */\n      dup2\n        /* \"#utility.yul\":7316:7317   */\n      0x00\n        /* \"#utility.yul\":7309:7323   */\n      mstore\n        /* \"#utility.yul\":7353:7357   */\n      0x20\n        /* \"#utility.yul\":7350:7351   */\n      0x00\n        /* \"#utility.yul\":7340:7358   */\n      keccak256\n        /* \"#utility.yul\":7332:7358   */\n      swap1\n      pop\n        /* \"#utility.yul\":7224:7365   */\n      swap2\n      swap1\n      pop\n      jump\t// out\n        /* \"#utility.yul\":7371:7464   */\n    tag_84:\n        /* \"#utility.yul\":7408:7414   */\n      0x00\n        /* \"#utility.yul\":7455:7457   */\n      0x20\n        /* \"#utility.yul\":7450:7452   */\n      0x1f\n        /* \"#utility.yul\":7443:7448   */\n      dup4\n        /* \"#utility.yul\":7439:7453   */\n      add\n        /* \"#utility.yul\":7435:7458   */\n      div\n        /* \"#utility.yul\":7425:7458   */\n      swap1\n      pop\n        /* \"#utility.yul\":7371:7464   */\n      swap2\n      swap1\n      pop\n      jump\t// out\n        /* \"#utility.yul\":7470:7577   */\n    tag_85:\n        /* \"#utility.yul\":7514:7522   */\n      0x00\n        /* \"#utility.yul\":7564:7569   */\n      dup3\n        /* \"#utility.yul\":7558:7562   */\n      dup3\n        /* \"#utility.yul\":7554:7570   */\n      shl\n        /* \"#utility.yul\":7533:7570   */\n      swap1\n      pop\n        /* \"#utility.yul\":7470:7577   */\n      swap3\n      swap2\n      pop\n      pop\n      jump\t// out\n        /* \"#utility.yul\":7583:7976   */\n    tag_86:\n        /* \"#utility.yul\":7652:7658   */\n      0x00\n        /* \"#utility.yul\":7702:7703   */\n      0x08\n        /* \"#utility.yul\":7690:7700   */\n      dup4\n        /* \"#utility.yul\":7686:7704   */\n      mul\n        /* \"#utility.yul\":7725:7822   */\n      tag_185\n        /* \"#utility.yul\":7755:7821   */\n      0xffffffffffffffffffffffffffffffffffffffffffffffffffffffffffffffff\n        /* \"#utility.yul\":7744:7753   */\n      dup3\n        /* \"#utility.yul\":7725:7822   */\n      tag_85\n      jump\t// in\n    tag_185:\n        /* \"#utility.yul\":7843:7882   */\n      tag_186\n        /* \"#utility.yul\":7873:7881   */\n      dup7\n        /* \"#utility.yul\":7862:7871   */\n      dup4\n        /* \"#utility.yul\":7843:7882   */\n      tag_85\n      jump\t// in\n    tag_186:\n        /* \"#utility.yul\":7831:7882   */\n      swap6\n      pop\n        /* \"#utility.yul\":7915:7919   */\n      dup1\n        /* \"#utility.yul\":7911:7920   */\n      not\n        /* \"#utility.yul\":7904:7909   */\n      dup5\n        /* \"#utility.yul\":7900:7921   */\n      and\n        /* \"#utility.yul\":7891:7921   */\n      swap4\n      pop\n        /* \"#utility.yul\":7964:7968   */\n      dup1\n        /* \"#utility.yul\":7954:7962   */\n      dup7\n        /* \"#utility.yul\":7950:7969   */\n      and\n        /* \"#utility.yul\":7943:7948   */\n      dup5\n        /* \"#utility.yul\":7940:7970   */\n      or\n        /* \"#utility.yul\":7930:7970   */\n      swap3\n      pop\n        /* \"#utility.yul\":7659:7976   */\n      pop\n      pop\n        /* \"#utility.yul\":7583:7976   */\n      swap4\n      swap3\n      pop\n      pop\n      pop\n      jump\t// out\n        /* \"#utility.yul\":7982:8042   */\n    tag_87:\n        /* \"#utility.yul\":8010:8013   */\n      0x00\n        /* \"#utility.yul\":8031:8036   */\n      dup2\n        /* \"#utility.yul\":8024:8036   */\n      swap1\n      pop\n        /* \"#utility.yul\":7982:8042   */\n      swap2\n      swap1\n      pop\n      jump\t// out\n        /* \"#utility.yul\":8048:8190   */\n    tag_88:\n        /* \"#utility.yul\":8098:8107   */\n      0x00\n        /* \"#utility.yul\":8131:8184   */\n      tag_189\n        /* \"#utility.yul\":8149:8183   */\n      tag_190\n        /* \"#utility.yul\":8158:8182   */\n      tag_191\n        /* \"#utility.yul\":8176:8181   */\n      dup5\n        /* \"#utility.yul\":8158:8182   */\n      tag_60\n      jump\t// in\n    tag_191:\n        /* \"#utility.yul\":8149:8183   */\n      tag_87\n      jump\t// in\n    tag_190:\n        /* \"#utility.yul\":8131:8184   */\n      tag_60\n      jump\t// in\n    tag_189:\n        /* \"#utility.yul\":8118:8184   */\n      swap1\n      pop\n        /* \"#utility.yul\":8048:8190   */\n      swap2\n      swap1\n      pop\n      jump\t// out\n        /* \"#utility.yul\":8196:8271   */\n    tag_89:\n        /* \"#utility.yul\":8239:8242   */\n      0x00\n        /* \"#utility.yul\":8260:8265   */\n      dup2\n        /* \"#utility.yul\":8253:8265   */\n      swap1\n      pop\n        /* \"#utility.yul\":8196:8271   */\n      swap2\n      swap1\n      pop\n      jump\t// out\n        /* \"#utility.yul\":8277:8546   */\n    tag_90:\n        /* \"#utility.yul\":8387:8426   */\n      tag_194\n        /* \"#utility.yul\":8418:8425   */\n      dup4\n        /* \"#utility.yul\":8387:8426   */\n      tag_88\n      jump\t// in\n    tag_194:\n        /* \"#utility.yul\":8448:8539   */\n      tag_195\n        /* \"#utility.yul\":8497:8538   */\n      tag_196\n        /* \"#utility.yul\":8521:8537   */\n      dup3\n        /* \"#utility.yul\":8497:8538   */\n      tag_89\n      jump\t// in\n    tag_196:\n        /* \"#utility.yul\":8489:8495   */\n      dup5\n        /* \"#utility.yul\":8482:8486   */\n      dup5\n        /* \"#utility.yul\":8476:8487   */\n      sload\n        /* \"#utility.yul\":8448:8539   */\n      tag_86\n      jump\t// in\n    tag_195:\n        /* \"#utility.yul\":8442:8446   */\n      dup3\n        /* \"#utility.yul\":8435:8540   */\n      sstore\n        /* \"#utility.yul\":8353:8546   */\n      pop\n        /* \"#utility.yul\":8277:8546   */\n      pop\n      pop\n      pop\n      jump\t// out\n        /* \"#utility.yul\":8552:8625   */\n    tag_91:\n        /* \"#utility.yul\":8597:8600   */\n      0x00\n        /* \"#utility.yul\":8618:8619   */\n      0x00\n        /* \"#utility.yul\":8611:8619   */\n      swap1\n      pop\n        /* \"#utility.yul\":8552:8625   */\n      swap1\n      jump\t// out\n        /* \"#utility.yul\":8631:8820   */\n    tag_92:\n        /* \"#utility.yul\":8708:8740   */\n      tag_199\n      tag_91\n      jump\t// in\n    tag_199:\n        /* \"#utility.yul\":8749:8814   */\n      tag_200\n        /* \"#utility.yul\":8807:8813   */\n      dup2\n        /* \"#utility.yul\":8799:8805   */\n      dup5\n        /* \"#utility.yul\":8793:8797   */\n      dup5\n        /* \"#utility.yul\":8749:8814   */\n      tag_90\n      jump\t// in\n    tag_200:\n        /* \"#utility.yul\":8684:8820   */\n      pop\n        /* \"#utility.yul\":8631:8820   */\n      pop\n      pop\n      jump\t// out\n        /* \"#utility.yul\":8826:9012   */\n    tag_93:\n        /* \"#utility.yul\":8886:9006   */\n    tag_202:\n        /* \"#utility.yul\":8903:8906   */\n      dup2\n        /* \"#utility.yul\":8896:8901   */\n      dup2\n        /* \"#utility.yul\":8893:8907   */\n      lt\n        /* \"#utility.yul\":8886:9006   */\n      iszero\n      tag_204\n      jumpi\n        /* \"#utility.yul\":8957:8996   */\n      tag_205\n        /* \"#utility.yul\":8994:8995   */\n      0x00\n        /* \"#utility.yul\":8987:8992   */\n      dup3\n        /* \"#utility.yul\":8957:8996   */\n      tag_92\n      jump\t// in\n    tag_205:\n        /* \"#utility.yul\":8930:8931   */\n      0x01\n        /* \"#utility.yul\":8923:8928   */\n      dup2\n        /* \"#utility.yul\":8919:8932   */\n      add\n        /* \"#utility.yul\":8910:8932   */\n      swap1\n      pop\n        /* \"#utility.yul\":8886:9006   */\n      jump(tag_202)\n    tag_204:\n        /* \"#utility.yul\":8826:9012   */\n      pop\n      pop\n      jump\t// out\n        /* \"#utility.yul\":9018:9561   */\n    tag_94:\n        /* \"#utility.yul\":9119:9121   */\n      0x1f\n        /* \"#utility.yul\":9114:9117   */\n      dup3\n        /* \"#utility.yul\":9111:9122   */\n      gt\n        /* \"#utility.yul\":9108:9554   */\n      iszero\n      tag_207\n      jumpi\n        /* \"#utility.yul\":9153:9191   */\n      tag_208\n        /* \"#utility.yul\":9185:9190   */\n      dup2\n        /* \"#utility.yul\":9153:9191   */\n      tag_83\n      jump\t// in\n    tag_208:\n        /* \"#utility.yul\":9237:9266   */\n      tag_209\n        /* \"#utility.yul\":9255:9265   */\n      dup5\n        /* \"#utility.yul\":9237:9266   */\n      tag_84\n      jump\t// in\n    tag_209:\n        /* \"#utility.yul\":9227:9235   */\n      dup2\n        /* \"#utility.yul\":9223:9267   */\n      add\n        /* \"#utility.yul\":9420:9422   */\n      0x20\n        /* \"#utility.yul\":9408:9418   */\n      dup6\n        /* \"#utility.yul\":9405:9423   */\n      lt\n        /* \"#utility.yul\":9402:9451   */\n      iszero\n      tag_210\n      jumpi\n        /* \"#utility.yul\":9441:9449   */\n      dup2\n        /* \"#utility.yul\":9426:9449   */\n      swap1\n      pop\n        /* \"#utility.yul\":9402:9451   */\n    tag_210:\n        /* \"#utility.yul\":9464:9544   */\n      tag_211\n        /* \"#utility.yul\":9520:9542   */\n      tag_212\n        /* \"#utility.yul\":9538:9541   */\n      dup6\n        /* \"#utility.yul\":9520:9542   */\n      tag_84\n      jump\t// in\n    tag_212:\n        /* \"#utility.yul\":9510:9518   */\n      dup4\n        /* \"#utility.yul\":9506:9543   */\n      add\n        /* \"#utility.yul\":9493:9504   */\n      dup3\n        /* \"#utility.yul\":9464:9544   */\n      tag_93\n      jump\t// in\n    tag_211:\n        /* \"#utility.yul\":9123:9554   */\n      pop\n      pop\n        /* \"#utility.yul\":9108:9554   */\n    tag_207:\n        /* \"#utility.yul\":9018:9561   */\n      pop\n      pop\n      pop\n      jump\t// out\n        /* \"#utility.yul\":9567:9684   */\n    tag_95:\n        /* \"#utility.yul\":9621:9629   */\n      0x00\n        /* \"#utility.yul\":9671:9676   */\n      dup3\n        /* \"#utility.yul\":9665:9669   */\n      dup3\n        /* \"#utility.yul\":9661:9677   */\n      shr\n        /* \"#utility.yul\":9640:9677   */\n      swap1\n      pop\n        /* \"#utility.yul\":9567:9684   */\n      swap3\n      swap2\n      pop\n      pop\n      jump\t// out\n        /* \"#utility.yul\":9690:9859   */\n    tag_96:\n        /* \"#utility.yul\":9734:9740   */\n      0x00\n        /* \"#utility.yul\":9767:9818   */\n      tag_215\n        /* \"#utility.yul\":9815:9816   */\n      0x00\n        /* \"#utility.yul\":9811:9817   */\n      not\n        /* \"#utility.yul\":9803:9808   */\n      dup5\n        /* \"#utility.yul\":9800:9801   */\n      0x08\n        /* \"#utility.yul\":9796:9809   */\n      mul\n        /* \"#utility.yul\":9767:9818   */\n      tag_95\n      jump\t// in\n    tag_215:\n        /* \"#utility.yul\":9763:9819   */\n      not\n        /* \"#utility.yul\":9848:9852   */\n      dup1\n        /* \"#utility.yul\":9842:9846   */\n      dup4\n        /* \"#utility.yul\":9838:9853   */\n      and\n        /* \"#utility.yul\":9828:9853   */\n      swap2\n      pop\n        /* \"#utility.yul\":9741:9859   */\n      pop\n        /* \"#utility.yul\":9690:9859   */\n      swap3\n      swap2\n      pop\n      pop\n      jump\t// out\n        /* \"#utility.yul\":9864:10159   */\n    tag_97:\n        /* \"#utility.yul\":9940:9944   */\n      0x00\n        /* \"#utility.yul\":10086:10115   */\n      tag_217\n        /* \"#utility.yul\":10111:10114   */\n      dup4\n        /* \"#utility.yul\":10105:10109   */\n      dup4\n        /* \"#utility.yul\":10086:10115   */\n      tag_96\n      jump\t// in\n    tag_217:\n        /* \"#utility.yul\":10078:10115   */\n      swap2\n      pop\n        /* \"#utility.yul\":10148:10151   */\n      dup3\n        /* \"#utility.yul\":10145:10146   */\n      0x02\n        /* \"#utility.yul\":10141:10152   */\n      mul\n        /* \"#utility.yul\":10135:10139   */\n      dup3\n        /* \"#utility.yul\":10132:10153   */\n      or\n        /* \"#utility.yul\":10124:10153   */\n      swap1\n      pop\n        /* \"#utility.yul\":9864:10159   */\n      swap3\n      swap2\n      pop\n      pop\n      jump\t// out\n        /* \"#utility.yul\":10164:11559   */\n    tag_51:\n        /* \"#utility.yul\":10281:10318   */\n      tag_219\n        /* \"#utility.yul\":10314:10317   */\n      dup3\n        /* \"#utility.yul\":10281:10318   */\n      tag_67\n      jump\t// in\n    tag_219:\n        /* \"#utility.yul\":10383:10401   */\n      0xffffffffffffffff\n        /* \"#utility.yul\":10375:10381   */\n      dup2\n        /* \"#utility.yul\":10372:10402   */\n      gt\n        /* \"#utility.yul\":10369:10425   */\n      iszero\n      tag_220\n      jumpi\n        /* \"#utility.yul\":10405:10423   */\n      tag_221\n      tag_74\n      jump\t// in\n    tag_221:\n        /* \"#utility.yul\":10369:10425   */\n    tag_220:\n        /* \"#utility.yul\":10449:10487   */\n      tag_222\n        /* \"#utility.yul\":10481:10485   */\n      dup3\n        /* \"#utility.yul\":10475:10486   */\n      sload\n        /* \"#utility.yul\":10449:10487   */\n      tag_40\n      jump\t// in\n    tag_222:\n        /* \"#utility.yul\":10534:10601   */\n      tag_223\n        /* \"#utility.yul\":10594:10600   */\n      dup3\n        /* \"#utility.yul\":10586:10592   */\n      dup3\n        /* \"#utility.yul\":10580:10584   */\n      dup6\n        /* \"#utility.yul\":10534:10601   */\n      tag_94\n      jump\t// in\n    tag_223:\n        /* \"#utility.yul\":10628:10629   */\n      0x00\n        /* \"#utility.yul\":10652:10656   */\n      0x20\n        /* \"#utility.yul\":10639:10656   */\n      swap1\n      pop\n        /* \"#utility.yul\":10684:10686   */\n      0x1f\n        /* \"#utility.yul\":10676:10682   */\n      dup4\n        /* \"#utility.yul\":10673:10687   */\n      gt\n        /* \"#utility.yul\":10701:10702   */\n      0x01\n        /* \"#utility.yul\":10696:11314   */\n      dup2\n      eq\n      tag_225\n      jumpi\n        /* \"#utility.yul\":11358:11359   */\n      0x00\n        /* \"#utility.yul\":11375:11381   */\n      dup5\n        /* \"#utility.yul\":11372:11449   */\n      iszero\n      tag_226\n      jumpi\n        /* \"#utility.yul\":11424:11433   */\n      dup3\n        /* \"#utility.yul\":11419:11422   */\n      dup8\n        /* \"#utility.yul\":11415:11434   */\n      add\n        /* \"#utility.yul\":11409:11435   */\n      mload\n        /* \"#utility.yul\":11400:11435   */\n      swap1\n      pop\n        /* \"#utility.yul\":11372:11449   */\n    tag_226:\n        /* \"#utility.yul\":11475:11542   */\n      tag_227\n        /* \"#utility.yul\":11535:11541   */\n      dup6\n        /* \"#utility.yul\":11528:11533   */\n      dup3\n        /* \"#utility.yul\":11475:11542   */\n      tag_97\n      jump\t// in\n    tag_227:\n        /* \"#utility.yul\":11469:11473   */\n      dup7\n        /* \"#utility.yul\":11462:11543   */\n      sstore\n        /* \"#utility.yul\":11331:11553   */\n      pop\n        /* \"#utility.yul\":10666:11553   */\n      jump(tag_224)\n        /* \"#utility.yul\":10696:11314   */\n    tag_225:\n        /* \"#utility.yul\":10748:10752   */\n      0x1f\n        /* \"#utility.yul\":10744:10753   */\n      not\n        /* \"#utility.yul\":10736:10742   */\n      dup5\n        /* \"#utility.yul\":10732:10754   */\n      and\n        /* \"#utility.yul\":10782:10819   */\n      tag_228\n        /* \"#utility.yul\":10814:10818   */\n      dup7\n        /* \"#utility.yul\":10782:10819   */\n      tag_83\n      jump\t// in\n    tag_228:\n        /* \"#utility.yul\":10841:10842   */\n      0x00\n        /* \"#utility.yul\":10855:11063   */\n    tag_229:\n        /* \"#utility.yul\":10869:10876   */\n      dup3\n        /* \"#utility.yul\":10866:10867   */\n      dup2\n        /* \"#utility.yul\":10863:10877   */\n      lt\n        /* \"#utility.yul\":10855:11063   */\n      iszero\n      tag_231\n      jumpi\n        /* \"#utility.yul\":10948:10957   */\n      dup5\n        /* \"#utility.yul\":10943:10946   */\n      dup10\n        /* \"#utility.yul\":10939:10958   */\n      add\n        /* \"#utility.yul\":10933:10959   */\n      mload\n        /* \"#utility.yul\":10925:10931   */\n      dup3\n        /* \"#utility.yul\":10918:10960   */\n      sstore\n        /* \"#utility.yul\":10999:11000   */\n      0x01\n        /* \"#utility.yul\":10991:10997   */\n      dup3\n        /* \"#utility.yul\":10987:11001   */\n      add\n        /* \"#utility.yul\":10977:11001   */\n      swap2\n      pop\n        /* \"#utility.yul\":11046:11048   */\n      0x20\n        /* \"#utility.yul\":11035:11044   */\n      dup6\n        /* \"#utility.yul\":11031:11049   */\n      add\n        /* \"#utility.yul\":11018:11049   */\n      swap5\n      pop\n        /* \"#utility.yul\":10892:10896   */\n      0x20\n        /* \"#utility.yul\":10889:10890   */\n      dup2\n        /* \"#utility.yul\":10885:10897   */\n      add\n        /* \"#utility.yul\":10880:10897   */\n      swap1\n      pop\n        /* \"#utility.yul\":10855:11063   */\n      jump(tag_229)\n    tag_231:\n        /* \"#utility.yul\":11091:11097   */\n      dup7\n        /* \"#utility.yul\":11082:11089   */\n      dup4\n        /* \"#utility.yul\":11079:11098   */\n      lt\n        /* \"#utility.yul\":11076:11255   */\n      iszero\n      tag_232\n      jumpi\n        /* \"#utility.yul\":11149:11158   */\n      dup5\n        /* \"#utility.yul\":11144:11147   */\n      dup10\n        /* \"#utility.yul\":11140:11159   */\n      add\n        /* \"#utility.yul\":11134:11160   */\n      mload\n        /* \"#utility.yul\":11192:11240   */\n      tag_233\n        /* \"#utility.yul\":11234:11238   */\n      0x1f\n        /* \"#utility.yul\":11226:11232   */\n      dup10\n        /* \"#utility.yul\":11222:11239   */\n      and\n        /* \"#utility.yul\":11211:11220   */\n      dup3\n        /* \"#utility.yul\":11192:11240   */\n      tag_96\n      jump\t// in\n    tag_233:\n        /* \"#utility.yul\":11184:11190   */\n      dup4\n        /* \"#utility.yul\":11177:11241   */\n      sstore\n        /* \"#utility.yul\":11099:11255   */\n      pop\n        /* \"#utility.yul\":11076:11255   */\n    tag_232:\n        /* \"#utility.yul\":11301:11302   */\n      0x01\n        /* \"#utility.yul\":11297:11298   */\n      0x02\n        /* \"#utility.yul\":11289:11295   */\n      dup9\n        /* \"#utility.yul\":11285:11299   */\n      mul\n        /* \"#utility.yul\":11281:11303   */\n      add\n        /* \"#utility.yul\":11275:11279   */\n      dup9\n        /* \"#utility.yul\":11268:11304   */\n      sstore\n        /* \"#utility.yul\":10703:11314   */\n      pop\n      pop\n      pop\n        /* \"#utility.yul\":10666:11553   */\n    tag_224:\n      pop\n        /* \"#utility.yul\":10256:11559   */\n      pop\n      pop\n      pop\n        /* \"#utility.yul\":10164:11559   */\n      pop\n      pop\n      jump\t// out\n        /* \"#utility.yul\":11565:11713   */\n    tag_98:\n        /* \"#utility.yul\":11667:11678   */\n      0x00\n        /* \"#utility.yul\":11704:11707   */\n      dup2\n        /* \"#utility.yul\":11689:11707   */\n      swap1\n      pop\n        /* \"#utility.yul\":11565:11713   */\n      swap3\n      swap2\n      pop\n      pop\n      jump\t// out\n        /* \"#utility.yul\":11719:12109   */\n    tag_99:\n        /* \"#utility.yul\":11825:11828   */\n      0x00\n        /* \"#utility.yul\":11853:11892   */\n      tag_236\n        /* \"#utility.yul\":11886:11891   */\n      dup3\n        /* \"#utility.yul\":11853:11892   */\n      tag_67\n      jump\t// in\n    tag_236:\n        /* \"#utility.yul\":11908:11997   */\n      tag_237\n        /* \"#utility.yul\":11990:11996   */\n      dup2\n        /* \"#utility.yul\":11985:11988   */\n      dup6\n        /* \"#utility.yul\":11908:11997   */\n      tag_98\n      jump\t// in\n    tag_237:\n        /* \"#utility.yul\":11901:11997   */\n      swap4\n      pop\n        /* \"#utility.yul\":12006:12071   */\n      tag_238\n        /* \"#utility.yul\":12064:12070   */\n      dup2\n        /* \"#utility.yul\":12059:12062   */\n      dup6\n        /* \"#utility.yul\":12052:12056   */\n      0x20\n        /* \"#utility.yul\":12045:12050   */\n      dup7\n        /* \"#utility.yul\":12041:12057   */\n      add\n        /* \"#utility.yul\":12006:12071   */\n      tag_69\n      jump\t// in\n    tag_238:\n        /* \"#utility.yul\":12096:12102   */\n      dup1\n        /* \"#utility.yul\":12091:12094   */\n      dup5\n        /* \"#utility.yul\":12087:12103   */\n      add\n        /* \"#utility.yul\":12080:12103   */\n      swap2\n      pop\n        /* \"#utility.yul\":11829:12109   */\n      pop\n        /* \"#utility.yul\":11719:12109   */\n      swap3\n      swap2\n      pop\n      pop\n      jump\t// out\n        /* \"#utility.yul\":12115:12390   */\n    tag_53:\n        /* \"#utility.yul\":12247:12250   */\n      0x00\n        /* \"#utility.yul\":12269:12364   */\n      tag_240\n        /* \"#utility.yul\":12360:12363   */\n      dup3\n        /* \"#utility.yul\":12351:12357   */\n      dup5\n        /* \"#utility.yul\":12269:12364   */\n      tag_99\n      jump\t// in\n    tag_240:\n        /* \"#utility.yul\":12262:12364   */\n      swap2\n      pop\n        /* \"#utility.yul\":12381:12384   */\n      dup2\n        /* \"#utility.yul\":12374:12384   */\n      swap1\n      pop\n        /* \"#utility.yul\":12115:12390   */\n      swap3\n      swap2\n      pop\n      pop\n      jump\t// out\n\n    auxdata: 0xa26469706673582212204ba8718e7dbedfc6dae44da767f93ebe0e8b69306346e423bed57cbfad017a8d64736f6c634300081c0033\n}\n",
				"bytecode": {
					"linkReferences": {},
					"object": "6080604052348015600e575f5ffd5b50610a5c8061001c5f395ff3fe608060405234801561000f575f5ffd5b5060043610610060575f3560e01c80632e64cec1146100645780632ebce631146100825780636057361d146100b35780638bab8dd5146100cf578063bc832d4e146100ff578063fe3791451461011b575b5f5ffd5b61006c61014b565b60405161007991906103a0565b60405180910390f35b61009c600480360381019061009791906103f4565b610153565b6040516100aa92919061048f565b60405180910390f35b6100cd60048036038101906100c891906103f4565b610208565b005b6100e960048036038101906100e491906105e9565b61021d565b6040516100f691906103a0565b60405180910390f35b61011960048036038101906101149190610630565b61024a565b005b610135600480360381019061013091906103f4565b6102ed565b604051610142919061068a565b60405180910390f35b5f5f54905090565b60018181548110610162575f80fd5b905f5260205f2090600202015f91509050805f015490806001018054610187906106d7565b80601f01602080910402602001604051908101604052809291908181526020018280546101b3906106d7565b80156101fe5780601f106101d5576101008083540402835291602001916101fe565b820191905f5260205f20905b8154815290600101906020018083116101e157829003601f168201915b5050505050905082565b6005816102159190610734565b5f8190555050565b6002818051602081018201805184825260208301602085012081835280955050505050505f915090505481565b6001604051806040016040528084815260200183815250908060018154018082558091505060019003905f5260205f2090600202015f909190919091505f820151815f015560208201518160010190816102a49190610907565b505050816002826040516102b89190610a10565b9081526020016040518091039020819055508060035f8481526020019081526020015f2090816102e89190610907565b505050565b6003602052805f5260405f205f915090508054610309906106d7565b80601f0160208091040260200160405190810160405280929190818152602001828054610335906106d7565b80156103805780601f1061035757610100808354040283529160200191610380565b820191905f5260205f20905b81548152906001019060200180831161036357829003601f168201915b505050505081565b5f819050919050565b61039a81610388565b82525050565b5f6020820190506103b35f830184610391565b92915050565b5f604051905090565b5f5ffd5b5f5ffd5b6103d381610388565b81146103dd575f5ffd5b50565b5f813590506103ee816103ca565b92915050565b5f60208284031215610409576104086103c2565b5b5f610416848285016103e0565b91505092915050565b5f81519050919050565b5f82825260208201905092915050565b8281835e5f83830152505050565b5f601f19601f8301169050919050565b5f6104618261041f565b61046b8185610429565b935061047b818560208601610439565b61048481610447565b840191505092915050565b5f6040820190506104a25f830185610391565b81810360208301526104b48184610457565b90509392505050565b5f5ffd5b5f5ffd5b7f4e487b71000000000000000000000000000000000000000000000000000000005f52604160045260245ffd5b6104fb82610447565b810181811067ffffffffffffffff8211171561051a576105196104c5565b5b80604052505050565b5f61052c6103b9565b905061053882826104f2565b919050565b5f67ffffffffffffffff821115610557576105566104c5565b5b61056082610447565b9050602081019050919050565b828183375f83830152505050565b5f61058d6105888461053d565b610523565b9050828152602081018484840111156105a9576105a86104c1565b5b6105b484828561056d565b509392505050565b5f82601f8301126105d0576105cf6104bd565b5b81356105e084826020860161057b565b91505092915050565b5f602082840312156105fe576105fd6103c2565b5b5f82013567ffffffffffffffff81111561061b5761061a6103c6565b5b610627848285016105bc565b91505092915050565b5f5f60408385031215610646576106456103c2565b5b5f610653858286016103e0565b925050602083013567ffffffffffffffff811115610674576106736103c6565b5b610680858286016105bc565b9150509250929050565b5f6020820190508181035f8301526106a28184610457565b905092915050565b7f4e487b71000000000000000000000000000000000000000000000000000000005f52602260045260245ffd5b5f60028204905060018216806106ee57607f821691505b602082108103610701576107006106aa565b5b50919050565b7f4e487b71000000000000000000000000000000000000000000000000000000005f52601160045260245ffd5b5f61073e82610388565b915061074983610388565b925082820190508082111561076157610760610707565b5b92915050565b5f819050815f5260205f209050919050565b5f6020601f8301049050919050565b5f82821b905092915050565b5f600883026107c37fffffffffffffffffffffffffffffffffffffffffffffffffffffffffffffffff82610788565b6107cd8683610788565b95508019841693508086168417925050509392505050565b5f819050919050565b5f6108086108036107fe84610388565b6107e5565b610388565b9050919050565b5f819050919050565b610821836107ee565b61083561082d8261080f565b848454610794565b825550505050565b5f5f905090565b61084c61083d565b610857818484610818565b505050565b5b8181101561087a5761086f5f82610844565b60018101905061085d565b5050565b601f8211156108bf5761089081610767565b61089984610779565b810160208510156108a8578190505b6108bc6108b485610779565b83018261085c565b50505b505050565b5f82821c905092915050565b5f6108df5f19846008026108c4565b1980831691505092915050565b5f6108f783836108d0565b9150826002028217905092915050565b6109108261041f565b67ffffffffffffffff811115610929576109286104c5565b5b61093382546106d7565b61093e82828561087e565b5f60209050601f83116001811461096f575f841561095d578287015190505b61096785826108ec565b8655506109ce565b601f19841661097d86610767565b5f5b828110156109a45784890151825560018201915060208501945060208101905061097f565b868310156109c157848901516109bd601f8916826108d0565b8355505b6001600288020188555050505b505050505050565b5f81905092915050565b5f6109ea8261041f565b6109f481856109d6565b9350610a04818560208601610439565b80840191505092915050565b5f610a1b82846109e0565b91508190509291505056fea26469706673582212204ba8718e7dbedfc6dae44da767f93ebe0e8b69306346e423bed57cbfad017a8d64736f6c634300081c0033",
					"opcodes": "PUSH1 0x80 PUSH1 0x40 MSTORE CALLVALUE DUP1 ISZERO PUSH1 0xE JUMPI PUSH0 PUSH0 REVERT JUMPDEST POP PUSH2 0xA5C DUP1 PUSH2 0x1C PUSH0 CODECOPY PUSH0 RETURN INVALID PUSH1 0x80 PUSH1 0x40 MSTORE CALLVALUE DUP1 ISZERO PUSH2 0xF JUMPI PUSH0 PUSH0 REVERT JUMPDEST POP PUSH1 0x4 CALLDATASIZE LT PUSH2 0x60 JUMPI PUSH0 CALLDATALOAD PUSH1 0xE0 SHR DUP1 PUSH4 0x2E64CEC1 EQ PUSH2 0x64 JUMPI DUP1 PUSH4 0x2EBCE631 EQ PUSH2 0x82 JUMPI DUP1 PUSH4 0x6057361D EQ PUSH2 0xB3 JUMPI DUP1 PUSH4 0x8BAB8DD5 EQ PUSH2 0xCF JUMPI DUP1 PUSH4 0xBC832D4E EQ PUSH2 0xFF JUMPI DUP1 PUSH4 0xFE379145 EQ PUSH2 0x11B JUMPI JUMPDEST PUSH0 PUSH0 REVERT JUMPDEST PUSH2 0x6C PUSH2 0x14B JUMP JUMPDEST PUSH1 0x40 MLOAD PUSH2 0x79 SWAP2 SWAP1 PUSH2 0x3A0 JUMP JUMPDEST PUSH1 0x40 MLOAD DUP1 SWAP2 SUB SWAP1 RETURN JUMPDEST PUSH2 0x9C PUSH1 0x4 DUP1 CALLDATASIZE SUB DUP2 ADD SWAP1 PUSH2 0x97 SWAP2 SWAP1 PUSH2 0x3F4 JUMP JUMPDEST PUSH2 0x153 JUMP JUMPDEST PUSH1 0x40 MLOAD PUSH2 0xAA SWAP3 SWAP2 SWAP1 PUSH2 0x48F JUMP JUMPDEST PUSH1 0x40 MLOAD DUP1 SWAP2 SUB SWAP1 RETURN JUMPDEST PUSH2 0xCD PUSH1 0x4 DUP1 CALLDATASIZE SUB DUP2 ADD SWAP1 PUSH2 0xC8 SWAP2 SWAP1 PUSH2 0x3F4 JUMP JUMPDEST PUSH2 0x208 JUMP JUMPDEST STOP JUMPDEST PUSH2 0xE9 PUSH1 0x4 DUP1 CALLDATASIZE SUB DUP2 ADD SWAP1 PUSH2 0xE4 SWAP2 SWAP1 PUSH2 0x5E9 JUMP JUMPDEST PUSH2 0x21D JUMP JUMPDEST PUSH1 0x40 MLOAD PUSH2 0xF6 SWAP2 SWAP1 PUSH2 0x3A0 JUMP JUMPDEST PUSH1 0x40 MLOAD DUP1 SWAP2 SUB SWAP1 RETURN JUMPDEST PUSH2 0x119 PUSH1 0x4 DUP1 CALLDATASIZE SUB DUP2 ADD SWAP1 PUSH2 0x114 SWAP2 SWAP1 PUSH2 0x630 JUMP JUMPDEST PUSH2 0x24A JUMP JUMPDEST STOP JUMPDEST PUSH2 0x135 PUSH1 0x4 DUP1 CALLDATASIZE SUB DUP2 ADD SWAP1 PUSH2 0x130 SWAP2 SWAP1 PUSH2 0x3F4 JUMP JUMPDEST PUSH2 0x2ED JUMP JUMPDEST PUSH1 0x40 MLOAD PUSH2 0x142 SWAP2 SWAP1 PUSH2 0x68A JUMP JUMPDEST PUSH1 0x40 MLOAD DUP1 SWAP2 SUB SWAP1 RETURN JUMPDEST PUSH0 PUSH0 SLOAD SWAP1 POP SWAP1 JUMP JUMPDEST PUSH1 0x1 DUP2 DUP2 SLOAD DUP2 LT PUSH2 0x162 JUMPI PUSH0 DUP1 REVERT JUMPDEST SWAP1 PUSH0 MSTORE PUSH1 0x20 PUSH0 KECCAK256 SWAP1 PUSH1 0x2 MUL ADD PUSH0 SWAP2 POP SWAP1 POP DUP1 PUSH0 ADD SLOAD SWAP1 DUP1 PUSH1 0x1 ADD DUP1 SLOAD PUSH2 0x187 SWAP1 PUSH2 0x6D7 JUMP JUMPDEST DUP1 PUSH1 0x1F ADD PUSH1 0x20 DUP1 SWAP2 DIV MUL PUSH1 0x20 ADD PUSH1 0x40 MLOAD SWAP1 DUP2 ADD PUSH1 0x40 MSTORE DUP1 SWAP3 SWAP2 SWAP1 DUP2 DUP2 MSTORE PUSH1 0x20 ADD DUP3 DUP1 SLOAD PUSH2 0x1B3 SWAP1 PUSH2 0x6D7 JUMP JUMPDEST DUP1 ISZERO PUSH2 0x1FE JUMPI DUP1 PUSH1 0x1F LT PUSH2 0x1D5 JUMPI PUSH2 0x100 DUP1 DUP4 SLOAD DIV MUL DUP4 MSTORE SWAP2 PUSH1 0x20 ADD SWAP2 PUSH2 0x1FE JUMP JUMPDEST DUP3 ADD SWAP2 SWAP1 PUSH0 MSTORE PUSH1 0x20 PUSH0 KECCAK256 SWAP1 JUMPDEST DUP2 SLOAD DUP2 MSTORE SWAP1 PUSH1 0x1 ADD SWAP1 PUSH1 0x20 ADD DUP1 DUP4 GT PUSH2 0x1E1 JUMPI DUP3 SWAP1 SUB PUSH1 0x1F AND DUP3 ADD SWAP2 JUMPDEST POP POP POP POP POP SWAP1 POP DUP3 JUMP JUMPDEST PUSH1 0x5 DUP2 PUSH2 0x215 SWAP2 SWAP1 PUSH2 0x734 JUMP JUMPDEST PUSH0 DUP2 SWAP1 SSTORE POP POP JUMP JUMPDEST PUSH1 0x2 DUP2 DUP1 MLOAD PUSH1 0x20 DUP2 ADD DUP3 ADD DUP1 MLOAD DUP5 DUP3 MSTORE PUSH1 0x20 DUP4 ADD PUSH1 0x20 DUP6 ADD KECCAK256 DUP2 DUP4 MSTORE DUP1 SWAP6 POP POP POP POP POP POP PUSH0 SWAP2 POP SWAP1 POP SLOAD DUP2 JUMP JUMPDEST PUSH1 0x1 PUSH1 0x40 MLOAD DUP1 PUSH1 0x40 ADD PUSH1 0x40 MSTORE DUP1 DUP5 DUP2 MSTORE PUSH1 0x20 ADD DUP4 DUP2 MSTORE POP SWAP1 DUP1 PUSH1 0x1 DUP2 SLOAD ADD DUP1 DUP3 SSTORE DUP1 SWAP2 POP POP PUSH1 0x1 SWAP1 SUB SWAP1 PUSH0 MSTORE PUSH1 0x20 PUSH0 KECCAK256 SWAP1 PUSH1 0x2 MUL ADD PUSH0 SWAP1 SWAP2 SWAP1 SWAP2 SWAP1 SWAP2 POP PUSH0 DUP3 ADD MLOAD DUP2 PUSH0 ADD SSTORE PUSH1 0x20 DUP3 ADD MLOAD DUP2 PUSH1 0x1 ADD SWAP1 DUP2 PUSH2 0x2A4 SWAP2 SWAP1 PUSH2 0x907 JUMP JUMPDEST POP POP POP DUP2 PUSH1 0x2 DUP3 PUSH1 0x40 MLOAD PUSH2 0x2B8 SWAP2 SWAP1 PUSH2 0xA10 JUMP JUMPDEST SWAP1 DUP2 MSTORE PUSH1 0x20 ADD PUSH1 0x40 MLOAD DUP1 SWAP2 SUB SWAP1 KECCAK256 DUP2 SWAP1 SSTORE POP DUP1 PUSH1 0x3 PUSH0 DUP5 DUP2 MSTORE PUSH1 0x20 ADD SWAP1 DUP2 MSTORE PUSH1 0x20 ADD PUSH0 KECCAK256 SWAP1 DUP2 PUSH2 0x2E8 SWAP2 SWAP1 PUSH2 0x907 JUMP JUMPDEST POP POP POP JUMP JUMPDEST PUSH1 0x3 PUSH1 0x20 MSTORE DUP1 PUSH0 MSTORE PUSH1 0x40 PUSH0 KECCAK256 PUSH0 SWAP2 POP SWAP1 POP DUP1 SLOAD PUSH2 0x309 SWAP1 PUSH2 0x6D7 JUMP JUMPDEST DUP1 PUSH1 0x1F ADD PUSH1 0x20 DUP1 SWAP2 DIV MUL PUSH1 0x20 ADD PUSH1 0x40 MLOAD SWAP1 DUP2 ADD PUSH1 0x40 MSTORE DUP1 SWAP3 SWAP2 SWAP1 DUP2 DUP2 MSTORE PUSH1 0x20 ADD DUP3 DUP1 SLOAD PUSH2 0x335 SWAP1 PUSH2 0x6D7 JUMP JUMPDEST DUP1 ISZERO PUSH2 0x380 JUMPI DUP1 PUSH1 0x1F LT PUSH2 0x357 JUMPI PUSH2 0x100 DUP1 DUP4 SLOAD DIV MUL DUP4 MSTORE SWAP2 PUSH1 0x20 ADD SWAP2 PUSH2 0x380 JUMP JUMPDEST DUP3 ADD SWAP2 SWAP1 PUSH0 MSTORE PUSH1 0x20 PUSH0 KECCAK256 SWAP1 JUMPDEST DUP2 SLOAD DUP2 MSTORE SWAP1 PUSH1 0x1 ADD SWAP1 PUSH1 0x20 ADD DUP1 DUP4 GT PUSH2 0x363 JUMPI DUP3 SWAP1 SUB PUSH1 0x1F AND DUP3 ADD SWAP2 JUMPDEST POP POP POP POP POP DUP2 JUMP JUMPDEST PUSH0 DUP2 SWAP1 POP SWAP2 SWAP1 POP JUMP JUMPDEST PUSH2 0x39A DUP2 PUSH2 0x388 JUMP JUMPDEST DUP3 MSTORE POP POP JUMP JUMPDEST PUSH0 PUSH1 0x20 DUP3 ADD SWAP1 POP PUSH2 0x3B3 PUSH0 DUP4 ADD DUP5 PUSH2 0x391 JUMP JUMPDEST SWAP3 SWAP2 POP POP JUMP JUMPDEST PUSH0 PUSH1 0x40 MLOAD SWAP1 POP SWAP1 JUMP JUMPDEST PUSH0 PUSH0 REVERT JUMPDEST PUSH0 PUSH0 REVERT JUMPDEST PUSH2 0x3D3 DUP2 PUSH2 0x388 JUMP JUMPDEST DUP2 EQ PUSH2 0x3DD JUMPI PUSH0 PUSH0 REVERT JUMPDEST POP JUMP JUMPDEST PUSH0 DUP2 CALLDATALOAD SWAP1 POP PUSH2 0x3EE DUP2 PUSH2 0x3CA JUMP JUMPDEST SWAP3 SWAP2 POP POP JUMP JUMPDEST PUSH0 PUSH1 0x20 DUP3 DUP5 SUB SLT ISZERO PUSH2 0x409 JUMPI PUSH2 0x408 PUSH2 0x3C2 JUMP JUMPDEST JUMPDEST PUSH0 PUSH2 0x416 DUP5 DUP3 DUP6 ADD PUSH2 0x3E0 JUMP JUMPDEST SWAP2 POP POP SWAP3 SWAP2 POP POP JUMP JUMPDEST PUSH0 DUP2 MLOAD SWAP1 POP SWAP2 SWAP1 POP JUMP JUMPDEST PUSH0 DUP3 DUP3 MSTORE PUSH1 0x20 DUP3 ADD SWAP1 POP SWAP3 SWAP2 POP POP JUMP JUMPDEST DUP3 DUP2 DUP4 MCOPY PUSH0 DUP4 DUP4 ADD MSTORE POP POP POP JUMP JUMPDEST PUSH0 PUSH1 0x1F NOT PUSH1 0x1F DUP4 ADD AND SWAP1 POP SWAP2 SWAP1 POP JUMP JUMPDEST PUSH0 PUSH2 0x461 DUP3 PUSH2 0x41F JUMP JUMPDEST PUSH2 0x46B DUP2 DUP6 PUSH2 0x429 JUMP JUMPDEST SWAP4 POP PUSH2 0x47B DUP2 DUP6 PUSH1 0x20 DUP7 ADD PUSH2 0x439 JUMP JUMPDEST PUSH2 0x484 DUP2 PUSH2 0x447 JUMP JUMPDEST DUP5 ADD SWAP2 POP POP SWAP3 SWAP2 POP POP JUMP JUMPDEST PUSH0 PUSH1 0x40 DUP3 ADD SWAP1 POP PUSH2 0x4A2 PUSH0 DUP4 ADD DUP6 PUSH2 0x391 JUMP JUMPDEST DUP2 DUP2 SUB PUSH1 0x20 DUP4 ADD MSTORE PUSH2 0x4B4 DUP2 DUP5 PUSH2 0x457 JUMP JUMPDEST SWAP1 POP SWAP4 SWAP3 POP POP POP JUMP JUMPDEST PUSH0 PUSH0 REVERT JUMPDEST PUSH0 PUSH0 REVERT JUMPDEST PUSH32 0x4E487B7100000000000000000000000000000000000000000000000000000000 PUSH0 MSTORE PUSH1 0x41 PUSH1 0x4 MSTORE PUSH1 0x24 PUSH0 REVERT JUMPDEST PUSH2 0x4FB DUP3 PUSH2 0x447 JUMP JUMPDEST DUP2 ADD DUP2 DUP2 LT PUSH8 0xFFFFFFFFFFFFFFFF DUP3 GT OR ISZERO PUSH2 0x51A JUMPI PUSH2 0x519 PUSH2 0x4C5 JUMP JUMPDEST JUMPDEST DUP1 PUSH1 0x40 MSTORE POP POP POP JUMP JUMPDEST PUSH0 PUSH2 0x52C PUSH2 0x3B9 JUMP JUMPDEST SWAP1 POP PUSH2 0x538 DUP3 DUP3 PUSH2 0x4F2 JUMP JUMPDEST SWAP2 SWAP1 POP JUMP JUMPDEST PUSH0 PUSH8 0xFFFFFFFFFFFFFFFF DUP3 GT ISZERO PUSH2 0x557 JUMPI PUSH2 0x556 PUSH2 0x4C5 JUMP JUMPDEST JUMPDEST PUSH2 0x560 DUP3 PUSH2 0x447 JUMP JUMPDEST SWAP1 POP PUSH1 0x20 DUP2 ADD SWAP1 POP SWAP2 SWAP1 POP JUMP JUMPDEST DUP3 DUP2 DUP4 CALLDATACOPY PUSH0 DUP4 DUP4 ADD MSTORE POP POP POP JUMP JUMPDEST PUSH0 PUSH2 0x58D PUSH2 0x588 DUP5 PUSH2 0x53D JUMP JUMPDEST PUSH2 0x523 JUMP JUMPDEST SWAP1 POP DUP3 DUP2 MSTORE PUSH1 0x20 DUP2 ADD DUP5 DUP5 DUP5 ADD GT ISZERO PUSH2 0x5A9 JUMPI PUSH2 0x5A8 PUSH2 0x4C1 JUMP JUMPDEST JUMPDEST PUSH2 0x5B4 DUP5 DUP3 DUP6 PUSH2 0x56D JUMP JUMPDEST POP SWAP4 SWAP3 POP POP POP JUMP JUMPDEST PUSH0 DUP3 PUSH1 0x1F DUP4 ADD SLT PUSH2 0x5D0 JUMPI PUSH2 0x5CF PUSH2 0x4BD JUMP JUMPDEST JUMPDEST DUP2 CALLDATALOAD PUSH2 0x5E0 DUP5 DUP3 PUSH1 0x20 DUP7 ADD PUSH2 0x57B JUMP JUMPDEST SWAP2 POP POP SWAP3 SWAP2 POP POP JUMP JUMPDEST PUSH0 PUSH1 0x20 DUP3 DUP5 SUB SLT ISZERO PUSH2 0x5FE JUMPI PUSH2 0x5FD PUSH2 0x3C2 JUMP JUMPDEST JUMPDEST PUSH0 DUP3 ADD CALLDATALOAD PUSH8 0xFFFFFFFFFFFFFFFF DUP2 GT ISZERO PUSH2 0x61B JUMPI PUSH2 0x61A PUSH2 0x3C6 JUMP JUMPDEST JUMPDEST PUSH2 0x627 DUP5 DUP3 DUP6 ADD PUSH2 0x5BC JUMP JUMPDEST SWAP2 POP POP SWAP3 SWAP2 POP POP JUMP JUMPDEST PUSH0 PUSH0 PUSH1 0x40 DUP4 DUP6 SUB SLT ISZERO PUSH2 0x646 JUMPI PUSH2 0x645 PUSH2 0x3C2 JUMP JUMPDEST JUMPDEST PUSH0 PUSH2 0x653 DUP6 DUP3 DUP7 ADD PUSH2 0x3E0 JUMP JUMPDEST SWAP3 POP POP PUSH1 0x20 DUP4 ADD CALLDATALOAD PUSH8 0xFFFFFFFFFFFFFFFF DUP2 GT ISZERO PUSH2 0x674 JUMPI PUSH2 0x673 PUSH2 0x3C6 JUMP JUMPDEST JUMPDEST PUSH2 0x680 DUP6 DUP3 DUP7 ADD PUSH2 0x5BC JUMP JUMPDEST SWAP2 POP POP SWAP3 POP SWAP3 SWAP1 POP JUMP JUMPDEST PUSH0 PUSH1 0x20 DUP3 ADD SWAP1 POP DUP2 DUP2 SUB PUSH0 DUP4 ADD MSTORE PUSH2 0x6A2 DUP2 DUP5 PUSH2 0x457 JUMP JUMPDEST SWAP1 POP SWAP3 SWAP2 POP POP JUMP JUMPDEST PUSH32 0x4E487B7100000000000000000000000000000000000000000000000000000000 PUSH0 MSTORE PUSH1 0x22 PUSH1 0x4 MSTORE PUSH1 0x24 PUSH0 REVERT JUMPDEST PUSH0 PUSH1 0x2 DUP3 DIV SWAP1 POP PUSH1 0x1 DUP3 AND DUP1 PUSH2 0x6EE JUMPI PUSH1 0x7F DUP3 AND SWAP2 POP JUMPDEST PUSH1 0x20 DUP3 LT DUP2 SUB PUSH2 0x701 JUMPI PUSH2 0x700 PUSH2 0x6AA JUMP JUMPDEST JUMPDEST POP SWAP2 SWAP1 POP JUMP JUMPDEST PUSH32 0x4E487B7100000000000000000000000000000000000000000000000000000000 PUSH0 MSTORE PUSH1 0x11 PUSH1 0x4 MSTORE PUSH1 0x24 PUSH0 REVERT JUMPDEST PUSH0 PUSH2 0x73E DUP3 PUSH2 0x388 JUMP JUMPDEST SWAP2 POP PUSH2 0x749 DUP4 PUSH2 0x388 JUMP JUMPDEST SWAP3 POP DUP3 DUP3 ADD SWAP1 POP DUP1 DUP3 GT ISZERO PUSH2 0x761 JUMPI PUSH2 0x760 PUSH2 0x707 JUMP JUMPDEST JUMPDEST SWAP3 SWAP2 POP POP JUMP JUMPDEST PUSH0 DUP2 SWAP1 POP DUP2 PUSH0 MSTORE PUSH1 0x20 PUSH0 KECCAK256 SWAP1 POP SWAP2 SWAP1 POP JUMP JUMPDEST PUSH0 PUSH1 0x20 PUSH1 0x1F DUP4 ADD DIV SWAP1 POP SWAP2 SWAP1 POP JUMP JUMPDEST PUSH0 DUP3 DUP3 SHL SWAP1 POP SWAP3 SWAP2 POP POP JUMP JUMPDEST PUSH0 PUSH1 0x8 DUP4 MUL PUSH2 0x7C3 PUSH32 0xFFFFFFFFFFFFFFFFFFFFFFFFFFFFFFFFFFFFFFFFFFFFFFFFFFFFFFFFFFFFFFFF DUP3 PUSH2 0x788 JUMP JUMPDEST PUSH2 0x7CD DUP7 DUP4 PUSH2 0x788 JUMP JUMPDEST SWAP6 POP DUP1 NOT DUP5 AND SWAP4 POP DUP1 DUP7 AND DUP5 OR SWAP3 POP POP POP SWAP4 SWAP3 POP POP POP JUMP JUMPDEST PUSH0 DUP2 SWAP1 POP SWAP2 SWAP1 POP JUMP JUMPDEST PUSH0 PUSH2 0x808 PUSH2 0x803 PUSH2 0x7FE DUP5 PUSH2 0x388 JUMP JUMPDEST PUSH2 0x7E5 JUMP JUMPDEST PUSH2 0x388 JUMP JUMPDEST SWAP1 POP SWAP2 SWAP1 POP JUMP JUMPDEST PUSH0 DUP2 SWAP1 POP SWAP2 SWAP1 POP JUMP JUMPDEST PUSH2 0x821 DUP4 PUSH2 0x7EE JUMP JUMPDEST PUSH2 0x835 PUSH2 0x82D DUP3 PUSH2 0x80F JUMP JUMPDEST DUP5 DUP5 SLOAD PUSH2 0x794 JUMP JUMPDEST DUP3 SSTORE POP POP POP POP JUMP JUMPDEST PUSH0 PUSH0 SWAP1 POP SWAP1 JUMP JUMPDEST PUSH2 0x84C PUSH2 0x83D JUMP JUMPDEST PUSH2 0x857 DUP2 DUP5 DUP5 PUSH2 0x818 JUMP JUMPDEST POP POP POP JUMP JUMPDEST JUMPDEST DUP2 DUP2 LT ISZERO PUSH2 0x87A JUMPI PUSH2 0x86F PUSH0 DUP3 PUSH2 0x844 JUMP JUMPDEST PUSH1 0x1 DUP2 ADD SWAP1 POP PUSH2 0x85D JUMP JUMPDEST POP POP JUMP JUMPDEST PUSH1 0x1F DUP3 GT ISZERO PUSH2 0x8BF JUMPI PUSH2 0x890 DUP2 PUSH2 0x767 JUMP JUMPDEST PUSH2 0x899 DUP5 PUSH2 0x779 JUMP JUMPDEST DUP2 ADD PUSH1 0x20 DUP6 LT ISZERO PUSH2 0x8A8 JUMPI DUP2 SWAP1 POP JUMPDEST PUSH2 0x8BC PUSH2 0x8B4 DUP6 PUSH2 0x779 JUMP JUMPDEST DUP4 ADD DUP3 PUSH2 0x85C JUMP JUMPDEST POP POP JUMPDEST POP POP POP JUMP JUMPDEST PUSH0 DUP3 DUP3 SHR SWAP1 POP SWAP3 SWAP2 POP POP JUMP JUMPDEST PUSH0 PUSH2 0x8DF PUSH0 NOT DUP5 PUSH1 0x8 MUL PUSH2 0x8C4 JUMP JUMPDEST NOT DUP1 DUP4 AND SWAP2 POP POP SWAP3 SWAP2 POP POP JUMP JUMPDEST PUSH0 PUSH2 0x8F7 DUP4 DUP4 PUSH2 0x8D0 JUMP JUMPDEST SWAP2 POP DUP3 PUSH1 0x2 MUL DUP3 OR SWAP1 POP SWAP3 SWAP2 POP POP JUMP JUMPDEST PUSH2 0x910 DUP3 PUSH2 0x41F JUMP JUMPDEST PUSH8 0xFFFFFFFFFFFFFFFF DUP2 GT ISZERO PUSH2 0x929 JUMPI PUSH2 0x928 PUSH2 0x4C5 JUMP JUMPDEST JUMPDEST PUSH2 0x933 DUP3 SLOAD PUSH2 0x6D7 JUMP JUMPDEST PUSH2 0x93E DUP3 DUP3 DUP6 PUSH2 0x87E JUMP JUMPDEST PUSH0 PUSH1 0x20 SWAP1 POP PUSH1 0x1F DUP4 GT PUSH1 0x1 DUP2 EQ PUSH2 0x96F JUMPI PUSH0 DUP5 ISZERO PUSH2 0x95D JUMPI DUP3 DUP8 ADD MLOAD SWAP1 POP JUMPDEST PUSH2 0x967 DUP6 DUP3 PUSH2 0x8EC JUMP JUMPDEST DUP7 SSTORE POP PUSH2 0x9CE JUMP JUMPDEST PUSH1 0x1F NOT DUP5 AND PUSH2 0x97D DUP7 PUSH2 0x767 JUMP JUMPDEST PUSH0 JUMPDEST DUP3 DUP2 LT ISZERO PUSH2 0x9A4 JUMPI DUP5 DUP10 ADD MLOAD DUP3 SSTORE PUSH1 0x1 DUP3 ADD SWAP2 POP PUSH1 0x20 DUP6 ADD SWAP5 POP PUSH1 0x20 DUP2 ADD SWAP1 POP PUSH2 0x97F JUMP JUMPDEST DUP7 DUP4 LT ISZERO PUSH2 0x9C1 JUMPI DUP5 DUP10 ADD MLOAD PUSH2 0x9BD PUSH1 0x1F DUP10 AND DUP3 PUSH2 0x8D0 JUMP JUMPDEST DUP4 SSTORE POP JUMPDEST PUSH1 0x1 PUSH1 0x2 DUP9 MUL ADD DUP9 SSTORE POP POP POP JUMPDEST POP POP POP POP POP POP JUMP JUMPDEST PUSH0 DUP2 SWAP1 POP SWAP3 SWAP2 POP POP JUMP JUMPDEST PUSH0 PUSH2 0x9EA DUP3 PUSH2 0x41F JUMP JUMPDEST PUSH2 0x9F4 DUP2 DUP6 PUSH2 0x9D6 JUMP JUMPDEST SWAP4 POP PUSH2 0xA04 DUP2 DUP6 PUSH1 0x20 DUP7 ADD PUSH2 0x439 JUMP JUMPDEST DUP1 DUP5 ADD SWAP2 POP POP SWAP3 SWAP2 POP POP JUMP JUMPDEST PUSH0 PUSH2 0xA1B DUP3 DUP5 PUSH2 0x9E0 JUMP JUMPDEST SWAP2 POP DUP2 SWAP1 POP SWAP3 SWAP2 POP POP JUMP INVALID LOG2 PUSH5 0x6970667358 0x22 SLT KECCAK256 0x4B 0xA8 PUSH18 0x8E7DBEDFC6DAE44DA767F93EBE0E8B693063 CHAINID 0xE4 0x23 0xBE 0xD5 PUSH29 0xBFAD017A8D64736F6C634300081C003300000000000000000000000000 "
				},
				"gasEstimates": {
					"creation": {
						"codeDepositCost": "530400",
						"executionCost": "560",
						"totalCost": "530960"
					},
					"external": {
						"addPerson(uint256,string)": "infinite",
						"favoriteNumberToName(uint256)": "infinite",
						"listOfPeople(uint256)": "infinite",
						"nameToFavoriteNumber(string)": "infinite",
						"retrieve()": "2409",
						"store(uint256)": "infinite"
					}
				},
				"methodIdentifiers": {
					"addPerson(uint256,string)": "bc832d4e",
					"favoriteNumberToName(uint256)": "fe379145",
					"listOfPeople(uint256)": "2ebce631",
					"nameToFavoriteNumber(string)": "8bab8dd5",
					"retrieve()": "2e64cec1",
					"store(uint256)": "6057361d"
				}
			},
			"storageLayout": {
				"storage": [
					{
						"astId": 23,
						"contract": "contracts/AddFiveStorage.sol:AddFiveStorage",
						"label": "myFavoriteNumber",
						"offset": 0,
						"slot": "0",
						"type": "t_uint256"
					},
					{
						"astId": 32,
						"contract": "contracts/AddFiveStorage.sol:AddFiveStorage",
						"label": "listOfPeople",
						"offset": 0,
						"slot": "1",
						"type": "t_array(t_struct(Person)28_storage)dyn_storage"
					},
					{
						"astId": 36,
						"contract": "contracts/AddFiveStorage.sol:AddFiveStorage",
						"label": "nameToFavoriteNumber",
						"offset": 0,
						"slot": "2",
						"type": "t_mapping(t_string_memory_ptr,t_uint256)"
					},
					{
						"astId": 40,
						"contract": "contracts/AddFiveStorage.sol:AddFiveStorage",
						"label": "favoriteNumberToName",
						"offset": 0,
						"slot": "3",
						"type": "t_mapping(t_uint256,t_string_storage)"
					}
				],
				"types": {
					"t_array(t_struct(Person)28_storage)dyn_storage": {
						"base": "t_struct(Person)28_storage",
						"encoding": "dynamic_array",
						"label": "struct SimpleStorage.Person[]",
						"numberOfBytes": "32"
					},
					"t_mapping(t_string_memory_ptr,t_uint256)": {
						"encoding": "mapping",
						"key": "t_string_memory_ptr",
						"label": "mapping(string => uint256)",
						"numberOfBytes": "32",
						"value": "t_uint256"
					},
					"t_mapping(t_uint256,t_string_storage)": {
						"encoding": "mapping",
						"key": "t_uint256",
						"label": "mapping(uint256 => string)",
						"numberOfBytes": "32",
						"value": "t_string_storage"
					},
					"t_string_memory_ptr": {
						"encoding": "bytes",
						"label": "string",
						"numberOfBytes": "32"
					},
					"t_string_storage": {
						"encoding": "bytes",
						"label": "string",
						"numberOfBytes": "32"
					},
					"t_struct(Person)28_storage": {
						"encoding": "inplace",
						"label": "struct SimpleStorage.Person",
						"members": [
							{
								"astId": 25,
								"contract": "contracts/AddFiveStorage.sol:AddFiveStorage",
								"label": "favoriteNumber",
								"offset": 0,
								"slot": "0",
								"type": "t_uint256"
							},
							{
								"astId": 27,
								"contract": "contracts/AddFiveStorage.sol:AddFiveStorage",
								"label": "name",
								"offset": 0,
								"slot": "1",
								"type": "t_string_storage"
							}
						],
						"numberOfBytes": "64"
					},
					"t_uint256": {
						"encoding": "inplace",
						"label": "uint256",
						"numberOfBytes": "32"
					}
				}
			},
			"userdoc": {
				"kind": "user",
				"methods": {},
				"version": 1
			}
		}
	}
}